{
	"contracts/atm.sol": {
		"ATM": {
			"abi": [
				{
					"anonymous": false,
					"inputs": [
						{
							"indexed": false,
							"internalType": "address",
							"name": "sender",
							"type": "address"
						},
						{
							"indexed": false,
							"internalType": "uint256",
							"name": "amount",
							"type": "uint256"
						}
					],
					"name": "Deposit",
					"type": "event"
				},
				{
					"anonymous": false,
					"inputs": [
						{
							"indexed": false,
							"internalType": "address",
							"name": "sender",
							"type": "address"
						},
						{
							"indexed": false,
							"internalType": "address",
							"name": "receiver",
							"type": "address"
						},
						{
							"indexed": false,
							"internalType": "uint256",
							"name": "amount",
							"type": "uint256"
						}
					],
					"name": "Transfer",
					"type": "event"
				},
				{
					"anonymous": false,
					"inputs": [
						{
							"indexed": false,
							"internalType": "address",
							"name": "receiver",
							"type": "address"
						},
						{
							"indexed": false,
							"internalType": "uint256",
							"name": "amount",
							"type": "uint256"
						}
					],
					"name": "Withdrawal",
					"type": "event"
				},
				{
					"inputs": [
						{
							"internalType": "address",
							"name": "",
							"type": "address"
						}
					],
					"name": "balances",
					"outputs": [
						{
							"internalType": "uint256",
							"name": "",
							"type": "uint256"
						}
					],
					"stateMutability": "view",
					"type": "function"
				},
				{
					"inputs": [],
					"name": "deposit",
					"outputs": [],
					"stateMutability": "payable",
					"type": "function"
				},
				{
					"inputs": [
						{
							"internalType": "uint256",
							"name": "val",
							"type": "uint256"
						}
					],
					"name": "depositBro",
					"outputs": [],
					"stateMutability": "payable",
					"type": "function"
				},
				{
					"inputs": [
						{
							"internalType": "address[]",
							"name": "receivers",
							"type": "address[]"
						},
						{
							"internalType": "uint256",
							"name": "amount",
							"type": "uint256"
						}
					],
					"name": "transfer",
					"outputs": [],
					"stateMutability": "nonpayable",
					"type": "function"
				},
				{
					"inputs": [
						{
							"internalType": "address",
							"name": "receiver",
							"type": "address"
						},
						{
							"internalType": "uint256",
							"name": "amount",
							"type": "uint256"
						}
					],
					"name": "transfer",
					"outputs": [],
					"stateMutability": "nonpayable",
					"type": "function"
				},
				{
					"inputs": [
						{
							"internalType": "uint256",
							"name": "amount",
							"type": "uint256"
						}
					],
					"name": "withdraw",
					"outputs": [],
					"stateMutability": "nonpayable",
					"type": "function"
				}
			],
			"devdoc": {
				"kind": "dev",
				"methods": {},
				"version": 1
			},
			"evm": {
				"assembly": "    /* \"contracts/atm.sol\":25:1443  contract ATM {... */\n  mstore(0x40, 0x80)\n  callvalue\n  dup1\n  iszero\n  tag_1\n  jumpi\n  0x00\n  dup1\n  revert\ntag_1:\n  pop\n  dataSize(sub_0)\n  dup1\n  dataOffset(sub_0)\n  0x00\n  codecopy\n  0x00\n  return\nstop\n\nsub_0: assembly {\n        /* \"contracts/atm.sol\":25:1443  contract ATM {... */\n      mstore(0x40, 0x80)\n      jumpi(tag_1, lt(calldatasize, 0x04))\n      shr(0xe0, calldataload(0x00))\n      dup1\n      0x1939c1ff\n      eq\n      tag_2\n      jumpi\n      dup1\n      0x27e235e3\n      eq\n      tag_3\n      jumpi\n      dup1\n      0x2e1a7d4d\n      eq\n      tag_4\n      jumpi\n      dup1\n      0x4610a131\n      eq\n      tag_5\n      jumpi\n      dup1\n      0xa9059cbb\n      eq\n      tag_6\n      jumpi\n      dup1\n      0xd0e30db0\n      eq\n      tag_7\n      jumpi\n    tag_1:\n      0x00\n      dup1\n      revert\n        /* \"contracts/atm.sol\":1067:1441  function transfer(address[] memory receivers, uint amount) public {... */\n    tag_2:\n      callvalue\n      dup1\n      iszero\n      tag_8\n      jumpi\n      0x00\n      dup1\n      revert\n    tag_8:\n      pop\n      tag_9\n      0x04\n      dup1\n      calldatasize\n      sub\n      dup2\n      add\n      swap1\n      tag_10\n      swap2\n      swap1\n      tag_11\n      jump\t// in\n    tag_10:\n      tag_12\n      jump\t// in\n    tag_9:\n      stop\n        /* \"contracts/atm.sol\":45:85  mapping(address => uint) public balances */\n    tag_3:\n      callvalue\n      dup1\n      iszero\n      tag_13\n      jumpi\n      0x00\n      dup1\n      revert\n    tag_13:\n      pop\n      tag_14\n      0x04\n      dup1\n      calldatasize\n      sub\n      dup2\n      add\n      swap1\n      tag_15\n      swap2\n      swap1\n      tag_16\n      jump\t// in\n    tag_15:\n      tag_17\n      jump\t// in\n    tag_14:\n      mload(0x40)\n      tag_18\n      swap2\n      swap1\n      tag_19\n      jump\t// in\n    tag_18:\n      mload(0x40)\n      dup1\n      swap2\n      sub\n      swap1\n      return\n        /* \"contracts/atm.sol\":570:771  function withdraw(uint amount) public {... */\n    tag_4:\n      callvalue\n      dup1\n      iszero\n      tag_20\n      jumpi\n      0x00\n      dup1\n      revert\n    tag_20:\n      pop\n      tag_21\n      0x04\n      dup1\n      calldatasize\n      sub\n      dup2\n      add\n      swap1\n      tag_22\n      swap2\n      swap1\n      tag_23\n      jump\t// in\n    tag_22:\n      tag_24\n      jump\t// in\n    tag_21:\n      stop\n        /* \"contracts/atm.sol\":396:564  function depositBro(uint val) public payable {... */\n    tag_5:\n      tag_25\n      0x04\n      dup1\n      calldatasize\n      sub\n      dup2\n      add\n      swap1\n      tag_26\n      swap2\n      swap1\n      tag_23\n      jump\t// in\n    tag_26:\n      tag_27\n      jump\t// in\n    tag_25:\n      stop\n        /* \"contracts/atm.sol\":777:1042  function transfer(address receiver, uint amount) public {... */\n    tag_6:\n      callvalue\n      dup1\n      iszero\n      tag_28\n      jumpi\n      0x00\n      dup1\n      revert\n    tag_28:\n      pop\n      tag_29\n      0x04\n      dup1\n      calldatasize\n      sub\n      dup2\n      add\n      swap1\n      tag_30\n      swap2\n      swap1\n      tag_31\n      jump\t// in\n    tag_30:\n      tag_32\n      jump\t// in\n    tag_29:\n      stop\n        /* \"contracts/atm.sol\":261:390  function deposit() public payable {... */\n    tag_7:\n      tag_33\n      tag_34\n      jump\t// in\n    tag_33:\n      stop\n        /* \"contracts/atm.sol\":1067:1441  function transfer(address[] memory receivers, uint amount) public {... */\n    tag_12:\n        /* \"contracts/atm.sol\":1194:1200  amount */\n      dup1\n        /* \"contracts/atm.sol\":1175:1184  receivers */\n      dup3\n        /* \"contracts/atm.sol\":1175:1191  receivers.length */\n      mload\n        /* \"contracts/atm.sol\":1175:1200  receivers.length * amount */\n      tag_36\n      swap2\n      swap1\n      tag_37\n      jump\t// in\n    tag_36:\n        /* \"contracts/atm.sol\":1151:1159  balances */\n      0x00\n        /* \"contracts/atm.sol\":1151:1171  balances[msg.sender] */\n      dup1\n        /* \"contracts/atm.sol\":1160:1170  msg.sender */\n      caller\n        /* \"contracts/atm.sol\":1151:1171  balances[msg.sender] */\n      0xffffffffffffffffffffffffffffffffffffffff\n      and\n      0xffffffffffffffffffffffffffffffffffffffff\n      and\n      dup2\n      mstore\n      0x20\n      add\n      swap1\n      dup2\n      mstore\n      0x20\n      add\n      0x00\n      keccak256\n      sload\n        /* \"contracts/atm.sol\":1151:1200  balances[msg.sender] >= receivers.length * amount */\n      lt\n      iszero\n        /* \"contracts/atm.sol\":1143:1223  require(balances[msg.sender] >= receivers.length * amount, \"Insufficient funds\") */\n      tag_38\n      jumpi\n      mload(0x40)\n      0x08c379a000000000000000000000000000000000000000000000000000000000\n      dup2\n      mstore\n      0x04\n      add\n      tag_39\n      swap1\n      tag_40\n      jump\t// in\n    tag_39:\n      mload(0x40)\n      dup1\n      swap2\n      sub\n      swap1\n      revert\n    tag_38:\n        /* \"contracts/atm.sol\":1238:1244  uint i */\n      0x00\n        /* \"contracts/atm.sol\":1233:1435  for (uint i=0; i<receivers.length; i++) {... */\n    tag_41:\n        /* \"contracts/atm.sol\":1250:1259  receivers */\n      dup3\n        /* \"contracts/atm.sol\":1250:1266  receivers.length */\n      mload\n        /* \"contracts/atm.sol\":1248:1249  i */\n      dup2\n        /* \"contracts/atm.sol\":1248:1266  i<receivers.length */\n      lt\n        /* \"contracts/atm.sol\":1233:1435  for (uint i=0; i<receivers.length; i++) {... */\n      iszero\n      tag_42\n      jumpi\n        /* \"contracts/atm.sol\":1292:1334  Transfer(msg.sender, receivers[i], amount) */\n      0xddf252ad1be2c89b69c2b068fc378daa952ba7f163c4a11628f55a4df523b3ef\n        /* \"contracts/atm.sol\":1301:1311  msg.sender */\n      caller\n        /* \"contracts/atm.sol\":1313:1322  receivers */\n      dup5\n        /* \"contracts/atm.sol\":1323:1324  i */\n      dup4\n        /* \"contracts/atm.sol\":1313:1325  receivers[i] */\n      dup2\n      mload\n      dup2\n      lt\n      tag_44\n      jumpi\n      tag_45\n      tag_46\n      jump\t// in\n    tag_45:\n    tag_44:\n      0x20\n      mul\n      0x20\n      add\n      add\n      mload\n        /* \"contracts/atm.sol\":1327:1333  amount */\n      dup5\n        /* \"contracts/atm.sol\":1292:1334  Transfer(msg.sender, receivers[i], amount) */\n      mload(0x40)\n      tag_47\n      swap4\n      swap3\n      swap2\n      swap1\n      tag_48\n      jump\t// in\n    tag_47:\n      mload(0x40)\n      dup1\n      swap2\n      sub\n      swap1\n      log1\n        /* \"contracts/atm.sol\":1372:1378  amount */\n      dup2\n        /* \"contracts/atm.sol\":1348:1356  balances */\n      0x00\n        /* \"contracts/atm.sol\":1348:1368  balances[msg.sender] */\n      dup1\n        /* \"contracts/atm.sol\":1357:1367  msg.sender */\n      caller\n        /* \"contracts/atm.sol\":1348:1368  balances[msg.sender] */\n      0xffffffffffffffffffffffffffffffffffffffff\n      and\n      0xffffffffffffffffffffffffffffffffffffffff\n      and\n      dup2\n      mstore\n      0x20\n      add\n      swap1\n      dup2\n      mstore\n      0x20\n      add\n      0x00\n      keccak256\n      0x00\n        /* \"contracts/atm.sol\":1348:1378  balances[msg.sender] -= amount */\n      dup3\n      dup3\n      sload\n      tag_49\n      swap2\n      swap1\n      tag_50\n      jump\t// in\n    tag_49:\n      swap3\n      pop\n      pop\n      dup2\n      swap1\n      sstore\n      pop\n        /* \"contracts/atm.sol\":1418:1424  amount */\n      dup2\n        /* \"contracts/atm.sol\":1392:1400  balances */\n      0x00\n        /* \"contracts/atm.sol\":1392:1414  balances[receivers[i]] */\n      dup1\n        /* \"contracts/atm.sol\":1401:1410  receivers */\n      dup6\n        /* \"contracts/atm.sol\":1411:1412  i */\n      dup5\n        /* \"contracts/atm.sol\":1401:1413  receivers[i] */\n      dup2\n      mload\n      dup2\n      lt\n      tag_51\n      jumpi\n      tag_52\n      tag_46\n      jump\t// in\n    tag_52:\n    tag_51:\n      0x20\n      mul\n      0x20\n      add\n      add\n      mload\n        /* \"contracts/atm.sol\":1392:1414  balances[receivers[i]] */\n      0xffffffffffffffffffffffffffffffffffffffff\n      and\n      0xffffffffffffffffffffffffffffffffffffffff\n      and\n      dup2\n      mstore\n      0x20\n      add\n      swap1\n      dup2\n      mstore\n      0x20\n      add\n      0x00\n      keccak256\n      0x00\n        /* \"contracts/atm.sol\":1392:1424  balances[receivers[i]] += amount */\n      dup3\n      dup3\n      sload\n      tag_53\n      swap2\n      swap1\n      tag_54\n      jump\t// in\n    tag_53:\n      swap3\n      pop\n      pop\n      dup2\n      swap1\n      sstore\n      pop\n        /* \"contracts/atm.sol\":1268:1271  i++ */\n      dup1\n      dup1\n      tag_55\n      swap1\n      tag_56\n      jump\t// in\n    tag_55:\n      swap2\n      pop\n      pop\n        /* \"contracts/atm.sol\":1233:1435  for (uint i=0; i<receivers.length; i++) {... */\n      jump(tag_41)\n    tag_42:\n      pop\n        /* \"contracts/atm.sol\":1067:1441  function transfer(address[] memory receivers, uint amount) public {... */\n      pop\n      pop\n      jump\t// out\n        /* \"contracts/atm.sol\":45:85  mapping(address => uint) public balances */\n    tag_17:\n      mstore(0x20, 0x00)\n      dup1\n      0x00\n      mstore\n      keccak256(0x00, 0x40)\n      0x00\n      swap2\n      pop\n      swap1\n      pop\n      sload\n      dup2\n      jump\t// out\n        /* \"contracts/atm.sol\":570:771  function withdraw(uint amount) public {... */\n    tag_24:\n        /* \"contracts/atm.sol\":650:656  amount */\n      dup1\n        /* \"contracts/atm.sol\":626:634  balances */\n      0x00\n        /* \"contracts/atm.sol\":626:646  balances[msg.sender] */\n      dup1\n        /* \"contracts/atm.sol\":635:645  msg.sender */\n      caller\n        /* \"contracts/atm.sol\":626:646  balances[msg.sender] */\n      0xffffffffffffffffffffffffffffffffffffffff\n      and\n      0xffffffffffffffffffffffffffffffffffffffff\n      and\n      dup2\n      mstore\n      0x20\n      add\n      swap1\n      dup2\n      mstore\n      0x20\n      add\n      0x00\n      keccak256\n      sload\n        /* \"contracts/atm.sol\":626:656  balances[msg.sender] >= amount */\n      lt\n      iszero\n        /* \"contracts/atm.sol\":618:679  require(balances[msg.sender] >= amount, \"Insufficient funds\") */\n      tag_58\n      jumpi\n      mload(0x40)\n      0x08c379a000000000000000000000000000000000000000000000000000000000\n      dup2\n      mstore\n      0x04\n      add\n      tag_59\n      swap1\n      tag_40\n      jump\t// in\n    tag_59:\n      mload(0x40)\n      dup1\n      swap2\n      sub\n      swap1\n      revert\n    tag_58:\n        /* \"contracts/atm.sol\":694:724  Withdrawal(msg.sender, amount) */\n      0x7fcf532c15f0a6db0bd6d0e038bea71d30d808c7d98cb3bf7268a95bf5081b65\n        /* \"contracts/atm.sol\":705:715  msg.sender */\n      caller\n        /* \"contracts/atm.sol\":717:723  amount */\n      dup3\n        /* \"contracts/atm.sol\":694:724  Withdrawal(msg.sender, amount) */\n      mload(0x40)\n      tag_60\n      swap3\n      swap2\n      swap1\n      tag_61\n      jump\t// in\n    tag_60:\n      mload(0x40)\n      dup1\n      swap2\n      sub\n      swap1\n      log1\n        /* \"contracts/atm.sol\":758:764  amount */\n      dup1\n        /* \"contracts/atm.sol\":734:742  balances */\n      0x00\n        /* \"contracts/atm.sol\":734:754  balances[msg.sender] */\n      dup1\n        /* \"contracts/atm.sol\":743:753  msg.sender */\n      caller\n        /* \"contracts/atm.sol\":734:754  balances[msg.sender] */\n      0xffffffffffffffffffffffffffffffffffffffff\n      and\n      0xffffffffffffffffffffffffffffffffffffffff\n      and\n      dup2\n      mstore\n      0x20\n      add\n      swap1\n      dup2\n      mstore\n      0x20\n      add\n      0x00\n      keccak256\n      0x00\n        /* \"contracts/atm.sol\":734:764  balances[msg.sender] -= amount */\n      dup3\n      dup3\n      sload\n      tag_62\n      swap2\n      swap1\n      tag_50\n      jump\t// in\n    tag_62:\n      swap3\n      pop\n      pop\n      dup2\n      swap1\n      sstore\n      pop\n        /* \"contracts/atm.sol\":570:771  function withdraw(uint amount) public {... */\n      pop\n      jump\t// out\n        /* \"contracts/atm.sol\":396:564  function depositBro(uint val) public payable {... */\n    tag_27:\n        /* \"contracts/atm.sol\":456:500  Deposit(msg.sender, val*1000000000000000000) */\n      0xe1fffcc4923d04b559f4d29a8bfc6cda04eb5b0d3c460751c2402c5c5cc9109c\n        /* \"contracts/atm.sol\":464:474  msg.sender */\n      caller\n        /* \"contracts/atm.sol\":480:499  1000000000000000000 */\n      0x0de0b6b3a7640000\n        /* \"contracts/atm.sol\":476:479  val */\n      dup4\n        /* \"contracts/atm.sol\":476:499  val*1000000000000000000 */\n      tag_64\n      swap2\n      swap1\n      tag_37\n      jump\t// in\n    tag_64:\n        /* \"contracts/atm.sol\":456:500  Deposit(msg.sender, val*1000000000000000000) */\n      mload(0x40)\n      tag_65\n      swap3\n      swap2\n      swap1\n      tag_61\n      jump\t// in\n    tag_65:\n      mload(0x40)\n      dup1\n      swap2\n      sub\n      swap1\n      log1\n        /* \"contracts/atm.sol\":538:557  1000000000000000000 */\n      0x0de0b6b3a7640000\n        /* \"contracts/atm.sol\":534:537  val */\n      dup2\n        /* \"contracts/atm.sol\":534:557  val*1000000000000000000 */\n      tag_66\n      swap2\n      swap1\n      tag_37\n      jump\t// in\n    tag_66:\n        /* \"contracts/atm.sol\":510:518  balances */\n      0x00\n        /* \"contracts/atm.sol\":510:530  balances[msg.sender] */\n      dup1\n        /* \"contracts/atm.sol\":519:529  msg.sender */\n      caller\n        /* \"contracts/atm.sol\":510:530  balances[msg.sender] */\n      0xffffffffffffffffffffffffffffffffffffffff\n      and\n      0xffffffffffffffffffffffffffffffffffffffff\n      and\n      dup2\n      mstore\n      0x20\n      add\n      swap1\n      dup2\n      mstore\n      0x20\n      add\n      0x00\n      keccak256\n      0x00\n        /* \"contracts/atm.sol\":510:557  balances[msg.sender] += val*1000000000000000000 */\n      dup3\n      dup3\n      sload\n      tag_67\n      swap2\n      swap1\n      tag_54\n      jump\t// in\n    tag_67:\n      swap3\n      pop\n      pop\n      dup2\n      swap1\n      sstore\n      pop\n        /* \"contracts/atm.sol\":396:564  function depositBro(uint val) public payable {... */\n      pop\n      jump\t// out\n        /* \"contracts/atm.sol\":777:1042  function transfer(address receiver, uint amount) public {... */\n    tag_32:\n        /* \"contracts/atm.sol\":875:881  amount */\n      dup1\n        /* \"contracts/atm.sol\":851:859  balances */\n      0x00\n        /* \"contracts/atm.sol\":851:871  balances[msg.sender] */\n      dup1\n        /* \"contracts/atm.sol\":860:870  msg.sender */\n      caller\n        /* \"contracts/atm.sol\":851:871  balances[msg.sender] */\n      0xffffffffffffffffffffffffffffffffffffffff\n      and\n      0xffffffffffffffffffffffffffffffffffffffff\n      and\n      dup2\n      mstore\n      0x20\n      add\n      swap1\n      dup2\n      mstore\n      0x20\n      add\n      0x00\n      keccak256\n      sload\n        /* \"contracts/atm.sol\":851:881  balances[msg.sender] >= amount */\n      lt\n      iszero\n        /* \"contracts/atm.sol\":843:904  require(balances[msg.sender] >= amount, \"Insufficient funds\") */\n      tag_69\n      jumpi\n      mload(0x40)\n      0x08c379a000000000000000000000000000000000000000000000000000000000\n      dup2\n      mstore\n      0x04\n      add\n      tag_70\n      swap1\n      tag_40\n      jump\t// in\n    tag_70:\n      mload(0x40)\n      dup1\n      swap2\n      sub\n      swap1\n      revert\n    tag_69:\n        /* \"contracts/atm.sol\":919:957  Transfer(msg.sender, receiver, amount) */\n      0xddf252ad1be2c89b69c2b068fc378daa952ba7f163c4a11628f55a4df523b3ef\n        /* \"contracts/atm.sol\":928:938  msg.sender */\n      caller\n        /* \"contracts/atm.sol\":940:948  receiver */\n      dup4\n        /* \"contracts/atm.sol\":950:956  amount */\n      dup4\n        /* \"contracts/atm.sol\":919:957  Transfer(msg.sender, receiver, amount) */\n      mload(0x40)\n      tag_71\n      swap4\n      swap3\n      swap2\n      swap1\n      tag_48\n      jump\t// in\n    tag_71:\n      mload(0x40)\n      dup1\n      swap2\n      sub\n      swap1\n      log1\n        /* \"contracts/atm.sol\":991:997  amount */\n      dup1\n        /* \"contracts/atm.sol\":967:975  balances */\n      0x00\n        /* \"contracts/atm.sol\":967:987  balances[msg.sender] */\n      dup1\n        /* \"contracts/atm.sol\":976:986  msg.sender */\n      caller\n        /* \"contracts/atm.sol\":967:987  balances[msg.sender] */\n      0xffffffffffffffffffffffffffffffffffffffff\n      and\n      0xffffffffffffffffffffffffffffffffffffffff\n      and\n      dup2\n      mstore\n      0x20\n      add\n      swap1\n      dup2\n      mstore\n      0x20\n      add\n      0x00\n      keccak256\n      0x00\n        /* \"contracts/atm.sol\":967:997  balances[msg.sender] -= amount */\n      dup3\n      dup3\n      sload\n      tag_72\n      swap2\n      swap1\n      tag_50\n      jump\t// in\n    tag_72:\n      swap3\n      pop\n      pop\n      dup2\n      swap1\n      sstore\n      pop\n        /* \"contracts/atm.sol\":1029:1035  amount */\n      dup1\n        /* \"contracts/atm.sol\":1007:1015  balances */\n      0x00\n        /* \"contracts/atm.sol\":1007:1025  balances[receiver] */\n      dup1\n        /* \"contracts/atm.sol\":1016:1024  receiver */\n      dup5\n        /* \"contracts/atm.sol\":1007:1025  balances[receiver] */\n      0xffffffffffffffffffffffffffffffffffffffff\n      and\n      0xffffffffffffffffffffffffffffffffffffffff\n      and\n      dup2\n      mstore\n      0x20\n      add\n      swap1\n      dup2\n      mstore\n      0x20\n      add\n      0x00\n      keccak256\n      0x00\n        /* \"contracts/atm.sol\":1007:1035  balances[receiver] += amount */\n      dup3\n      dup3\n      sload\n      tag_73\n      swap2\n      swap1\n      tag_54\n      jump\t// in\n    tag_73:\n      swap3\n      pop\n      pop\n      dup2\n      swap1\n      sstore\n      pop\n        /* \"contracts/atm.sol\":777:1042  function transfer(address receiver, uint amount) public {... */\n      pop\n      pop\n      jump\t// out\n        /* \"contracts/atm.sol\":261:390  function deposit() public payable {... */\n    tag_34:\n        /* \"contracts/atm.sol\":310:340  Deposit(msg.sender, msg.value) */\n      0xe1fffcc4923d04b559f4d29a8bfc6cda04eb5b0d3c460751c2402c5c5cc9109c\n        /* \"contracts/atm.sol\":318:328  msg.sender */\n      caller\n        /* \"contracts/atm.sol\":330:339  msg.value */\n      callvalue\n        /* \"contracts/atm.sol\":310:340  Deposit(msg.sender, msg.value) */\n      mload(0x40)\n      tag_75\n      swap3\n      swap2\n      swap1\n      tag_61\n      jump\t// in\n    tag_75:\n      mload(0x40)\n      dup1\n      swap2\n      sub\n      swap1\n      log1\n        /* \"contracts/atm.sol\":374:383  msg.value */\n      callvalue\n        /* \"contracts/atm.sol\":350:358  balances */\n      0x00\n        /* \"contracts/atm.sol\":350:370  balances[msg.sender] */\n      dup1\n        /* \"contracts/atm.sol\":359:369  msg.sender */\n      caller\n        /* \"contracts/atm.sol\":350:370  balances[msg.sender] */\n      0xffffffffffffffffffffffffffffffffffffffff\n      and\n      0xffffffffffffffffffffffffffffffffffffffff\n      and\n      dup2\n      mstore\n      0x20\n      add\n      swap1\n      dup2\n      mstore\n      0x20\n      add\n      0x00\n      keccak256\n      0x00\n        /* \"contracts/atm.sol\":350:383  balances[msg.sender] += msg.value */\n      dup3\n      dup3\n      sload\n      tag_76\n      swap2\n      swap1\n      tag_54\n      jump\t// in\n    tag_76:\n      swap3\n      pop\n      pop\n      dup2\n      swap1\n      sstore\n      pop\n        /* \"contracts/atm.sol\":261:390  function deposit() public payable {... */\n      jump\t// out\n        /* \"#utility.yul\":7:82   */\n    tag_77:\n        /* \"#utility.yul\":40:46   */\n      0x00\n        /* \"#utility.yul\":73:75   */\n      0x40\n        /* \"#utility.yul\":67:76   */\n      mload\n        /* \"#utility.yul\":57:76   */\n      swap1\n      pop\n        /* \"#utility.yul\":7:82   */\n      swap1\n      jump\t// out\n        /* \"#utility.yul\":88:205   */\n    tag_78:\n        /* \"#utility.yul\":197:198   */\n      0x00\n        /* \"#utility.yul\":194:195   */\n      dup1\n        /* \"#utility.yul\":187:199   */\n      revert\n        /* \"#utility.yul\":211:328   */\n    tag_79:\n        /* \"#utility.yul\":320:321   */\n      0x00\n        /* \"#utility.yul\":317:318   */\n      dup1\n        /* \"#utility.yul\":310:322   */\n      revert\n        /* \"#utility.yul\":334:451   */\n    tag_80:\n        /* \"#utility.yul\":443:444   */\n      0x00\n        /* \"#utility.yul\":440:441   */\n      dup1\n        /* \"#utility.yul\":433:445   */\n      revert\n        /* \"#utility.yul\":457:559   */\n    tag_81:\n        /* \"#utility.yul\":498:504   */\n      0x00\n        /* \"#utility.yul\":549:551   */\n      0x1f\n        /* \"#utility.yul\":545:552   */\n      not\n        /* \"#utility.yul\":540:542   */\n      0x1f\n        /* \"#utility.yul\":533:538   */\n      dup4\n        /* \"#utility.yul\":529:543   */\n      add\n        /* \"#utility.yul\":525:553   */\n      and\n        /* \"#utility.yul\":515:553   */\n      swap1\n      pop\n        /* \"#utility.yul\":457:559   */\n      swap2\n      swap1\n      pop\n      jump\t// out\n        /* \"#utility.yul\":565:745   */\n    tag_82:\n        /* \"#utility.yul\":613:690   */\n      0x4e487b7100000000000000000000000000000000000000000000000000000000\n        /* \"#utility.yul\":610:611   */\n      0x00\n        /* \"#utility.yul\":603:691   */\n      mstore\n        /* \"#utility.yul\":710:714   */\n      0x41\n        /* \"#utility.yul\":707:708   */\n      0x04\n        /* \"#utility.yul\":700:715   */\n      mstore\n        /* \"#utility.yul\":734:738   */\n      0x24\n        /* \"#utility.yul\":731:732   */\n      0x00\n        /* \"#utility.yul\":724:739   */\n      revert\n        /* \"#utility.yul\":751:1032   */\n    tag_83:\n        /* \"#utility.yul\":834:861   */\n      tag_110\n        /* \"#utility.yul\":856:860   */\n      dup3\n        /* \"#utility.yul\":834:861   */\n      tag_81\n      jump\t// in\n    tag_110:\n        /* \"#utility.yul\":826:832   */\n      dup2\n        /* \"#utility.yul\":822:862   */\n      add\n        /* \"#utility.yul\":964:970   */\n      dup2\n        /* \"#utility.yul\":952:962   */\n      dup2\n        /* \"#utility.yul\":949:971   */\n      lt\n        /* \"#utility.yul\":928:946   */\n      0xffffffffffffffff\n        /* \"#utility.yul\":916:926   */\n      dup3\n        /* \"#utility.yul\":913:947   */\n      gt\n        /* \"#utility.yul\":910:972   */\n      or\n        /* \"#utility.yul\":907:995   */\n      iszero\n      tag_111\n      jumpi\n        /* \"#utility.yul\":975:993   */\n      tag_112\n      tag_82\n      jump\t// in\n    tag_112:\n        /* \"#utility.yul\":907:995   */\n    tag_111:\n        /* \"#utility.yul\":1015:1025   */\n      dup1\n        /* \"#utility.yul\":1011:1013   */\n      0x40\n        /* \"#utility.yul\":1004:1026   */\n      mstore\n        /* \"#utility.yul\":794:1032   */\n      pop\n        /* \"#utility.yul\":751:1032   */\n      pop\n      pop\n      jump\t// out\n        /* \"#utility.yul\":1038:1167   */\n    tag_84:\n        /* \"#utility.yul\":1072:1078   */\n      0x00\n        /* \"#utility.yul\":1099:1119   */\n      tag_114\n      tag_77\n      jump\t// in\n    tag_114:\n        /* \"#utility.yul\":1089:1119   */\n      swap1\n      pop\n        /* \"#utility.yul\":1128:1161   */\n      tag_115\n        /* \"#utility.yul\":1156:1160   */\n      dup3\n        /* \"#utility.yul\":1148:1154   */\n      dup3\n        /* \"#utility.yul\":1128:1161   */\n      tag_83\n      jump\t// in\n    tag_115:\n        /* \"#utility.yul\":1038:1167   */\n      swap2\n      swap1\n      pop\n      jump\t// out\n        /* \"#utility.yul\":1173:1484   */\n    tag_85:\n        /* \"#utility.yul\":1250:1254   */\n      0x00\n        /* \"#utility.yul\":1340:1358   */\n      0xffffffffffffffff\n        /* \"#utility.yul\":1332:1338   */\n      dup3\n        /* \"#utility.yul\":1329:1359   */\n      gt\n        /* \"#utility.yul\":1326:1382   */\n      iszero\n      tag_117\n      jumpi\n        /* \"#utility.yul\":1362:1380   */\n      tag_118\n      tag_82\n      jump\t// in\n    tag_118:\n        /* \"#utility.yul\":1326:1382   */\n    tag_117:\n        /* \"#utility.yul\":1412:1416   */\n      0x20\n        /* \"#utility.yul\":1404:1410   */\n      dup3\n        /* \"#utility.yul\":1400:1417   */\n      mul\n        /* \"#utility.yul\":1392:1417   */\n      swap1\n      pop\n        /* \"#utility.yul\":1472:1476   */\n      0x20\n        /* \"#utility.yul\":1466:1470   */\n      dup2\n        /* \"#utility.yul\":1462:1477   */\n      add\n        /* \"#utility.yul\":1454:1477   */\n      swap1\n      pop\n        /* \"#utility.yul\":1173:1484   */\n      swap2\n      swap1\n      pop\n      jump\t// out\n        /* \"#utility.yul\":1490:1607   */\n    tag_86:\n        /* \"#utility.yul\":1599:1600   */\n      0x00\n        /* \"#utility.yul\":1596:1597   */\n      dup1\n        /* \"#utility.yul\":1589:1601   */\n      revert\n        /* \"#utility.yul\":1613:1739   */\n    tag_87:\n        /* \"#utility.yul\":1650:1657   */\n      0x00\n        /* \"#utility.yul\":1690:1732   */\n      0xffffffffffffffffffffffffffffffffffffffff\n        /* \"#utility.yul\":1683:1688   */\n      dup3\n        /* \"#utility.yul\":1679:1733   */\n      and\n        /* \"#utility.yul\":1668:1733   */\n      swap1\n      pop\n        /* \"#utility.yul\":1613:1739   */\n      swap2\n      swap1\n      pop\n      jump\t// out\n        /* \"#utility.yul\":1745:1841   */\n    tag_88:\n        /* \"#utility.yul\":1782:1789   */\n      0x00\n        /* \"#utility.yul\":1811:1835   */\n      tag_122\n        /* \"#utility.yul\":1829:1834   */\n      dup3\n        /* \"#utility.yul\":1811:1835   */\n      tag_87\n      jump\t// in\n    tag_122:\n        /* \"#utility.yul\":1800:1835   */\n      swap1\n      pop\n        /* \"#utility.yul\":1745:1841   */\n      swap2\n      swap1\n      pop\n      jump\t// out\n        /* \"#utility.yul\":1847:1969   */\n    tag_89:\n        /* \"#utility.yul\":1920:1944   */\n      tag_124\n        /* \"#utility.yul\":1938:1943   */\n      dup2\n        /* \"#utility.yul\":1920:1944   */\n      tag_88\n      jump\t// in\n    tag_124:\n        /* \"#utility.yul\":1913:1918   */\n      dup2\n        /* \"#utility.yul\":1910:1945   */\n      eq\n        /* \"#utility.yul\":1900:1963   */\n      tag_125\n      jumpi\n        /* \"#utility.yul\":1959:1960   */\n      0x00\n        /* \"#utility.yul\":1956:1957   */\n      dup1\n        /* \"#utility.yul\":1949:1961   */\n      revert\n        /* \"#utility.yul\":1900:1963   */\n    tag_125:\n        /* \"#utility.yul\":1847:1969   */\n      pop\n      jump\t// out\n        /* \"#utility.yul\":1975:2114   */\n    tag_90:\n        /* \"#utility.yul\":2021:2026   */\n      0x00\n        /* \"#utility.yul\":2059:2065   */\n      dup2\n        /* \"#utility.yul\":2046:2066   */\n      calldataload\n        /* \"#utility.yul\":2037:2066   */\n      swap1\n      pop\n        /* \"#utility.yul\":2075:2108   */\n      tag_127\n        /* \"#utility.yul\":2102:2107   */\n      dup2\n        /* \"#utility.yul\":2075:2108   */\n      tag_89\n      jump\t// in\n    tag_127:\n        /* \"#utility.yul\":1975:2114   */\n      swap3\n      swap2\n      pop\n      pop\n      jump\t// out\n        /* \"#utility.yul\":2137:2847   */\n    tag_91:\n        /* \"#utility.yul\":2233:2238   */\n      0x00\n        /* \"#utility.yul\":2258:2339   */\n      tag_129\n        /* \"#utility.yul\":2274:2338   */\n      tag_130\n        /* \"#utility.yul\":2331:2337   */\n      dup5\n        /* \"#utility.yul\":2274:2338   */\n      tag_85\n      jump\t// in\n    tag_130:\n        /* \"#utility.yul\":2258:2339   */\n      tag_84\n      jump\t// in\n    tag_129:\n        /* \"#utility.yul\":2249:2339   */\n      swap1\n      pop\n        /* \"#utility.yul\":2359:2364   */\n      dup1\n        /* \"#utility.yul\":2388:2394   */\n      dup4\n        /* \"#utility.yul\":2381:2386   */\n      dup3\n        /* \"#utility.yul\":2374:2395   */\n      mstore\n        /* \"#utility.yul\":2422:2426   */\n      0x20\n        /* \"#utility.yul\":2415:2420   */\n      dup3\n        /* \"#utility.yul\":2411:2427   */\n      add\n        /* \"#utility.yul\":2404:2427   */\n      swap1\n      pop\n        /* \"#utility.yul\":2475:2479   */\n      0x20\n        /* \"#utility.yul\":2467:2473   */\n      dup5\n        /* \"#utility.yul\":2463:2480   */\n      mul\n        /* \"#utility.yul\":2455:2461   */\n      dup4\n        /* \"#utility.yul\":2451:2481   */\n      add\n        /* \"#utility.yul\":2504:2507   */\n      dup6\n        /* \"#utility.yul\":2496:2502   */\n      dup2\n        /* \"#utility.yul\":2493:2508   */\n      gt\n        /* \"#utility.yul\":2490:2612   */\n      iszero\n      tag_131\n      jumpi\n        /* \"#utility.yul\":2523:2602   */\n      tag_132\n      tag_86\n      jump\t// in\n    tag_132:\n        /* \"#utility.yul\":2490:2612   */\n    tag_131:\n        /* \"#utility.yul\":2638:2644   */\n      dup4\n        /* \"#utility.yul\":2621:2841   */\n    tag_133:\n        /* \"#utility.yul\":2655:2661   */\n      dup2\n        /* \"#utility.yul\":2650:2653   */\n      dup2\n        /* \"#utility.yul\":2647:2662   */\n      lt\n        /* \"#utility.yul\":2621:2841   */\n      iszero\n      tag_135\n      jumpi\n        /* \"#utility.yul\":2730:2733   */\n      dup1\n        /* \"#utility.yul\":2759:2796   */\n      tag_136\n        /* \"#utility.yul\":2792:2795   */\n      dup9\n        /* \"#utility.yul\":2780:2790   */\n      dup3\n        /* \"#utility.yul\":2759:2796   */\n      tag_90\n      jump\t// in\n    tag_136:\n        /* \"#utility.yul\":2754:2757   */\n      dup5\n        /* \"#utility.yul\":2747:2797   */\n      mstore\n        /* \"#utility.yul\":2826:2830   */\n      0x20\n        /* \"#utility.yul\":2821:2824   */\n      dup5\n        /* \"#utility.yul\":2817:2831   */\n      add\n        /* \"#utility.yul\":2810:2831   */\n      swap4\n      pop\n        /* \"#utility.yul\":2697:2841   */\n      pop\n        /* \"#utility.yul\":2681:2685   */\n      0x20\n        /* \"#utility.yul\":2676:2679   */\n      dup2\n        /* \"#utility.yul\":2672:2686   */\n      add\n        /* \"#utility.yul\":2665:2686   */\n      swap1\n      pop\n        /* \"#utility.yul\":2621:2841   */\n      jump(tag_133)\n    tag_135:\n        /* \"#utility.yul\":2625:2646   */\n      pop\n        /* \"#utility.yul\":2239:2847   */\n      pop\n      pop\n        /* \"#utility.yul\":2137:2847   */\n      swap4\n      swap3\n      pop\n      pop\n      pop\n      jump\t// out\n        /* \"#utility.yul\":2870:3240   */\n    tag_92:\n        /* \"#utility.yul\":2941:2946   */\n      0x00\n        /* \"#utility.yul\":2990:2993   */\n      dup3\n        /* \"#utility.yul\":2983:2987   */\n      0x1f\n        /* \"#utility.yul\":2975:2981   */\n      dup4\n        /* \"#utility.yul\":2971:2988   */\n      add\n        /* \"#utility.yul\":2967:2994   */\n      slt\n        /* \"#utility.yul\":2957:3079   */\n      tag_138\n      jumpi\n        /* \"#utility.yul\":2998:3077   */\n      tag_139\n      tag_80\n      jump\t// in\n    tag_139:\n        /* \"#utility.yul\":2957:3079   */\n    tag_138:\n        /* \"#utility.yul\":3115:3121   */\n      dup2\n        /* \"#utility.yul\":3102:3122   */\n      calldataload\n        /* \"#utility.yul\":3140:3234   */\n      tag_140\n        /* \"#utility.yul\":3230:3233   */\n      dup5\n        /* \"#utility.yul\":3222:3228   */\n      dup3\n        /* \"#utility.yul\":3215:3219   */\n      0x20\n        /* \"#utility.yul\":3207:3213   */\n      dup7\n        /* \"#utility.yul\":3203:3220   */\n      add\n        /* \"#utility.yul\":3140:3234   */\n      tag_91\n      jump\t// in\n    tag_140:\n        /* \"#utility.yul\":3131:3234   */\n      swap2\n      pop\n        /* \"#utility.yul\":2947:3240   */\n      pop\n        /* \"#utility.yul\":2870:3240   */\n      swap3\n      swap2\n      pop\n      pop\n      jump\t// out\n        /* \"#utility.yul\":3246:3323   */\n    tag_93:\n        /* \"#utility.yul\":3283:3290   */\n      0x00\n        /* \"#utility.yul\":3312:3317   */\n      dup2\n        /* \"#utility.yul\":3301:3317   */\n      swap1\n      pop\n        /* \"#utility.yul\":3246:3323   */\n      swap2\n      swap1\n      pop\n      jump\t// out\n        /* \"#utility.yul\":3329:3451   */\n    tag_94:\n        /* \"#utility.yul\":3402:3426   */\n      tag_143\n        /* \"#utility.yul\":3420:3425   */\n      dup2\n        /* \"#utility.yul\":3402:3426   */\n      tag_93\n      jump\t// in\n    tag_143:\n        /* \"#utility.yul\":3395:3400   */\n      dup2\n        /* \"#utility.yul\":3392:3427   */\n      eq\n        /* \"#utility.yul\":3382:3445   */\n      tag_144\n      jumpi\n        /* \"#utility.yul\":3441:3442   */\n      0x00\n        /* \"#utility.yul\":3438:3439   */\n      dup1\n        /* \"#utility.yul\":3431:3443   */\n      revert\n        /* \"#utility.yul\":3382:3445   */\n    tag_144:\n        /* \"#utility.yul\":3329:3451   */\n      pop\n      jump\t// out\n        /* \"#utility.yul\":3457:3596   */\n    tag_95:\n        /* \"#utility.yul\":3503:3508   */\n      0x00\n        /* \"#utility.yul\":3541:3547   */\n      dup2\n        /* \"#utility.yul\":3528:3548   */\n      calldataload\n        /* \"#utility.yul\":3519:3548   */\n      swap1\n      pop\n        /* \"#utility.yul\":3557:3590   */\n      tag_146\n        /* \"#utility.yul\":3584:3589   */\n      dup2\n        /* \"#utility.yul\":3557:3590   */\n      tag_94\n      jump\t// in\n    tag_146:\n        /* \"#utility.yul\":3457:3596   */\n      swap3\n      swap2\n      pop\n      pop\n      jump\t// out\n        /* \"#utility.yul\":3602:4286   */\n    tag_11:\n        /* \"#utility.yul\":3695:3701   */\n      0x00\n        /* \"#utility.yul\":3703:3709   */\n      dup1\n        /* \"#utility.yul\":3752:3754   */\n      0x40\n        /* \"#utility.yul\":3740:3749   */\n      dup4\n        /* \"#utility.yul\":3731:3738   */\n      dup6\n        /* \"#utility.yul\":3727:3750   */\n      sub\n        /* \"#utility.yul\":3723:3755   */\n      slt\n        /* \"#utility.yul\":3720:3839   */\n      iszero\n      tag_148\n      jumpi\n        /* \"#utility.yul\":3758:3837   */\n      tag_149\n      tag_78\n      jump\t// in\n    tag_149:\n        /* \"#utility.yul\":3720:3839   */\n    tag_148:\n        /* \"#utility.yul\":3906:3907   */\n      0x00\n        /* \"#utility.yul\":3895:3904   */\n      dup4\n        /* \"#utility.yul\":3891:3908   */\n      add\n        /* \"#utility.yul\":3878:3909   */\n      calldataload\n        /* \"#utility.yul\":3936:3954   */\n      0xffffffffffffffff\n        /* \"#utility.yul\":3928:3934   */\n      dup2\n        /* \"#utility.yul\":3925:3955   */\n      gt\n        /* \"#utility.yul\":3922:4039   */\n      iszero\n      tag_150\n      jumpi\n        /* \"#utility.yul\":3958:4037   */\n      tag_151\n      tag_79\n      jump\t// in\n    tag_151:\n        /* \"#utility.yul\":3922:4039   */\n    tag_150:\n        /* \"#utility.yul\":4063:4141   */\n      tag_152\n        /* \"#utility.yul\":4133:4140   */\n      dup6\n        /* \"#utility.yul\":4124:4130   */\n      dup3\n        /* \"#utility.yul\":4113:4122   */\n      dup7\n        /* \"#utility.yul\":4109:4131   */\n      add\n        /* \"#utility.yul\":4063:4141   */\n      tag_92\n      jump\t// in\n    tag_152:\n        /* \"#utility.yul\":4053:4141   */\n      swap3\n      pop\n        /* \"#utility.yul\":3849:4151   */\n      pop\n        /* \"#utility.yul\":4190:4192   */\n      0x20\n        /* \"#utility.yul\":4216:4269   */\n      tag_153\n        /* \"#utility.yul\":4261:4268   */\n      dup6\n        /* \"#utility.yul\":4252:4258   */\n      dup3\n        /* \"#utility.yul\":4241:4250   */\n      dup7\n        /* \"#utility.yul\":4237:4259   */\n      add\n        /* \"#utility.yul\":4216:4269   */\n      tag_95\n      jump\t// in\n    tag_153:\n        /* \"#utility.yul\":4206:4269   */\n      swap2\n      pop\n        /* \"#utility.yul\":4161:4279   */\n      pop\n        /* \"#utility.yul\":3602:4286   */\n      swap3\n      pop\n      swap3\n      swap1\n      pop\n      jump\t// out\n        /* \"#utility.yul\":4292:4621   */\n    tag_16:\n        /* \"#utility.yul\":4351:4357   */\n      0x00\n        /* \"#utility.yul\":4400:4402   */\n      0x20\n        /* \"#utility.yul\":4388:4397   */\n      dup3\n        /* \"#utility.yul\":4379:4386   */\n      dup5\n        /* \"#utility.yul\":4375:4398   */\n      sub\n        /* \"#utility.yul\":4371:4403   */\n      slt\n        /* \"#utility.yul\":4368:4487   */\n      iszero\n      tag_155\n      jumpi\n        /* \"#utility.yul\":4406:4485   */\n      tag_156\n      tag_78\n      jump\t// in\n    tag_156:\n        /* \"#utility.yul\":4368:4487   */\n    tag_155:\n        /* \"#utility.yul\":4526:4527   */\n      0x00\n        /* \"#utility.yul\":4551:4604   */\n      tag_157\n        /* \"#utility.yul\":4596:4603   */\n      dup5\n        /* \"#utility.yul\":4587:4593   */\n      dup3\n        /* \"#utility.yul\":4576:4585   */\n      dup6\n        /* \"#utility.yul\":4572:4594   */\n      add\n        /* \"#utility.yul\":4551:4604   */\n      tag_90\n      jump\t// in\n    tag_157:\n        /* \"#utility.yul\":4541:4604   */\n      swap2\n      pop\n        /* \"#utility.yul\":4497:4614   */\n      pop\n        /* \"#utility.yul\":4292:4621   */\n      swap3\n      swap2\n      pop\n      pop\n      jump\t// out\n        /* \"#utility.yul\":4627:4745   */\n    tag_96:\n        /* \"#utility.yul\":4714:4738   */\n      tag_159\n        /* \"#utility.yul\":4732:4737   */\n      dup2\n        /* \"#utility.yul\":4714:4738   */\n      tag_93\n      jump\t// in\n    tag_159:\n        /* \"#utility.yul\":4709:4712   */\n      dup3\n        /* \"#utility.yul\":4702:4739   */\n      mstore\n        /* \"#utility.yul\":4627:4745   */\n      pop\n      pop\n      jump\t// out\n        /* \"#utility.yul\":4751:4973   */\n    tag_19:\n        /* \"#utility.yul\":4844:4848   */\n      0x00\n        /* \"#utility.yul\":4882:4884   */\n      0x20\n        /* \"#utility.yul\":4871:4880   */\n      dup3\n        /* \"#utility.yul\":4867:4885   */\n      add\n        /* \"#utility.yul\":4859:4885   */\n      swap1\n      pop\n        /* \"#utility.yul\":4895:4966   */\n      tag_161\n        /* \"#utility.yul\":4963:4964   */\n      0x00\n        /* \"#utility.yul\":4952:4961   */\n      dup4\n        /* \"#utility.yul\":4948:4965   */\n      add\n        /* \"#utility.yul\":4939:4945   */\n      dup5\n        /* \"#utility.yul\":4895:4966   */\n      tag_96\n      jump\t// in\n    tag_161:\n        /* \"#utility.yul\":4751:4973   */\n      swap3\n      swap2\n      pop\n      pop\n      jump\t// out\n        /* \"#utility.yul\":4979:5308   */\n    tag_23:\n        /* \"#utility.yul\":5038:5044   */\n      0x00\n        /* \"#utility.yul\":5087:5089   */\n      0x20\n        /* \"#utility.yul\":5075:5084   */\n      dup3\n        /* \"#utility.yul\":5066:5073   */\n      dup5\n        /* \"#utility.yul\":5062:5085   */\n      sub\n        /* \"#utility.yul\":5058:5090   */\n      slt\n        /* \"#utility.yul\":5055:5174   */\n      iszero\n      tag_163\n      jumpi\n        /* \"#utility.yul\":5093:5172   */\n      tag_164\n      tag_78\n      jump\t// in\n    tag_164:\n        /* \"#utility.yul\":5055:5174   */\n    tag_163:\n        /* \"#utility.yul\":5213:5214   */\n      0x00\n        /* \"#utility.yul\":5238:5291   */\n      tag_165\n        /* \"#utility.yul\":5283:5290   */\n      dup5\n        /* \"#utility.yul\":5274:5280   */\n      dup3\n        /* \"#utility.yul\":5263:5272   */\n      dup6\n        /* \"#utility.yul\":5259:5281   */\n      add\n        /* \"#utility.yul\":5238:5291   */\n      tag_95\n      jump\t// in\n    tag_165:\n        /* \"#utility.yul\":5228:5291   */\n      swap2\n      pop\n        /* \"#utility.yul\":5184:5301   */\n      pop\n        /* \"#utility.yul\":4979:5308   */\n      swap3\n      swap2\n      pop\n      pop\n      jump\t// out\n        /* \"#utility.yul\":5314:5788   */\n    tag_31:\n        /* \"#utility.yul\":5382:5388   */\n      0x00\n        /* \"#utility.yul\":5390:5396   */\n      dup1\n        /* \"#utility.yul\":5439:5441   */\n      0x40\n        /* \"#utility.yul\":5427:5436   */\n      dup4\n        /* \"#utility.yul\":5418:5425   */\n      dup6\n        /* \"#utility.yul\":5414:5437   */\n      sub\n        /* \"#utility.yul\":5410:5442   */\n      slt\n        /* \"#utility.yul\":5407:5526   */\n      iszero\n      tag_167\n      jumpi\n        /* \"#utility.yul\":5445:5524   */\n      tag_168\n      tag_78\n      jump\t// in\n    tag_168:\n        /* \"#utility.yul\":5407:5526   */\n    tag_167:\n        /* \"#utility.yul\":5565:5566   */\n      0x00\n        /* \"#utility.yul\":5590:5643   */\n      tag_169\n        /* \"#utility.yul\":5635:5642   */\n      dup6\n        /* \"#utility.yul\":5626:5632   */\n      dup3\n        /* \"#utility.yul\":5615:5624   */\n      dup7\n        /* \"#utility.yul\":5611:5633   */\n      add\n        /* \"#utility.yul\":5590:5643   */\n      tag_90\n      jump\t// in\n    tag_169:\n        /* \"#utility.yul\":5580:5643   */\n      swap3\n      pop\n        /* \"#utility.yul\":5536:5653   */\n      pop\n        /* \"#utility.yul\":5692:5694   */\n      0x20\n        /* \"#utility.yul\":5718:5771   */\n      tag_170\n        /* \"#utility.yul\":5763:5770   */\n      dup6\n        /* \"#utility.yul\":5754:5760   */\n      dup3\n        /* \"#utility.yul\":5743:5752   */\n      dup7\n        /* \"#utility.yul\":5739:5761   */\n      add\n        /* \"#utility.yul\":5718:5771   */\n      tag_95\n      jump\t// in\n    tag_170:\n        /* \"#utility.yul\":5708:5771   */\n      swap2\n      pop\n        /* \"#utility.yul\":5663:5781   */\n      pop\n        /* \"#utility.yul\":5314:5788   */\n      swap3\n      pop\n      swap3\n      swap1\n      pop\n      jump\t// out\n        /* \"#utility.yul\":5794:5974   */\n    tag_97:\n        /* \"#utility.yul\":5842:5919   */\n      0x4e487b7100000000000000000000000000000000000000000000000000000000\n        /* \"#utility.yul\":5839:5840   */\n      0x00\n        /* \"#utility.yul\":5832:5920   */\n      mstore\n        /* \"#utility.yul\":5939:5943   */\n      0x11\n        /* \"#utility.yul\":5936:5937   */\n      0x04\n        /* \"#utility.yul\":5929:5944   */\n      mstore\n        /* \"#utility.yul\":5963:5967   */\n      0x24\n        /* \"#utility.yul\":5960:5961   */\n      0x00\n        /* \"#utility.yul\":5953:5968   */\n      revert\n        /* \"#utility.yul\":5980:6328   */\n    tag_37:\n        /* \"#utility.yul\":6020:6027   */\n      0x00\n        /* \"#utility.yul\":6043:6063   */\n      tag_173\n        /* \"#utility.yul\":6061:6062   */\n      dup3\n        /* \"#utility.yul\":6043:6063   */\n      tag_93\n      jump\t// in\n    tag_173:\n        /* \"#utility.yul\":6038:6063   */\n      swap2\n      pop\n        /* \"#utility.yul\":6077:6097   */\n      tag_174\n        /* \"#utility.yul\":6095:6096   */\n      dup4\n        /* \"#utility.yul\":6077:6097   */\n      tag_93\n      jump\t// in\n    tag_174:\n        /* \"#utility.yul\":6072:6097   */\n      swap3\n      pop\n        /* \"#utility.yul\":6265:6266   */\n      dup2\n        /* \"#utility.yul\":6197:6263   */\n      0xffffffffffffffffffffffffffffffffffffffffffffffffffffffffffffffff\n        /* \"#utility.yul\":6193:6267   */\n      div\n        /* \"#utility.yul\":6190:6191   */\n      dup4\n        /* \"#utility.yul\":6187:6268   */\n      gt\n        /* \"#utility.yul\":6182:6183   */\n      dup3\n        /* \"#utility.yul\":6175:6184   */\n      iszero\n        /* \"#utility.yul\":6168:6185   */\n      iszero\n        /* \"#utility.yul\":6164:6269   */\n      and\n        /* \"#utility.yul\":6161:6292   */\n      iszero\n      tag_175\n      jumpi\n        /* \"#utility.yul\":6272:6290   */\n      tag_176\n      tag_97\n      jump\t// in\n    tag_176:\n        /* \"#utility.yul\":6161:6292   */\n    tag_175:\n        /* \"#utility.yul\":6320:6321   */\n      dup3\n        /* \"#utility.yul\":6317:6318   */\n      dup3\n        /* \"#utility.yul\":6313:6322   */\n      mul\n        /* \"#utility.yul\":6302:6322   */\n      swap1\n      pop\n        /* \"#utility.yul\":5980:6328   */\n      swap3\n      swap2\n      pop\n      pop\n      jump\t// out\n        /* \"#utility.yul\":6334:6503   */\n    tag_98:\n        /* \"#utility.yul\":6418:6429   */\n      0x00\n        /* \"#utility.yul\":6452:6458   */\n      dup3\n        /* \"#utility.yul\":6447:6450   */\n      dup3\n        /* \"#utility.yul\":6440:6459   */\n      mstore\n        /* \"#utility.yul\":6492:6496   */\n      0x20\n        /* \"#utility.yul\":6487:6490   */\n      dup3\n        /* \"#utility.yul\":6483:6497   */\n      add\n        /* \"#utility.yul\":6468:6497   */\n      swap1\n      pop\n        /* \"#utility.yul\":6334:6503   */\n      swap3\n      swap2\n      pop\n      pop\n      jump\t// out\n        /* \"#utility.yul\":6509:6677   */\n    tag_99:\n        /* \"#utility.yul\":6649:6669   */\n      0x496e73756666696369656e742066756e64730000000000000000000000000000\n        /* \"#utility.yul\":6645:6646   */\n      0x00\n        /* \"#utility.yul\":6637:6643   */\n      dup3\n        /* \"#utility.yul\":6633:6647   */\n      add\n        /* \"#utility.yul\":6626:6670   */\n      mstore\n        /* \"#utility.yul\":6509:6677   */\n      pop\n      jump\t// out\n        /* \"#utility.yul\":6683:7049   */\n    tag_100:\n        /* \"#utility.yul\":6825:6828   */\n      0x00\n        /* \"#utility.yul\":6846:6913   */\n      tag_180\n        /* \"#utility.yul\":6910:6912   */\n      0x12\n        /* \"#utility.yul\":6905:6908   */\n      dup4\n        /* \"#utility.yul\":6846:6913   */\n      tag_98\n      jump\t// in\n    tag_180:\n        /* \"#utility.yul\":6839:6913   */\n      swap2\n      pop\n        /* \"#utility.yul\":6922:7015   */\n      tag_181\n        /* \"#utility.yul\":7011:7014   */\n      dup3\n        /* \"#utility.yul\":6922:7015   */\n      tag_99\n      jump\t// in\n    tag_181:\n        /* \"#utility.yul\":7040:7042   */\n      0x20\n        /* \"#utility.yul\":7035:7038   */\n      dup3\n        /* \"#utility.yul\":7031:7043   */\n      add\n        /* \"#utility.yul\":7024:7043   */\n      swap1\n      pop\n        /* \"#utility.yul\":6683:7049   */\n      swap2\n      swap1\n      pop\n      jump\t// out\n        /* \"#utility.yul\":7055:7474   */\n    tag_40:\n        /* \"#utility.yul\":7221:7225   */\n      0x00\n        /* \"#utility.yul\":7259:7261   */\n      0x20\n        /* \"#utility.yul\":7248:7257   */\n      dup3\n        /* \"#utility.yul\":7244:7262   */\n      add\n        /* \"#utility.yul\":7236:7262   */\n      swap1\n      pop\n        /* \"#utility.yul\":7308:7317   */\n      dup2\n        /* \"#utility.yul\":7302:7306   */\n      dup2\n        /* \"#utility.yul\":7298:7318   */\n      sub\n        /* \"#utility.yul\":7294:7295   */\n      0x00\n        /* \"#utility.yul\":7283:7292   */\n      dup4\n        /* \"#utility.yul\":7279:7296   */\n      add\n        /* \"#utility.yul\":7272:7319   */\n      mstore\n        /* \"#utility.yul\":7336:7467   */\n      tag_183\n        /* \"#utility.yul\":7462:7466   */\n      dup2\n        /* \"#utility.yul\":7336:7467   */\n      tag_100\n      jump\t// in\n    tag_183:\n        /* \"#utility.yul\":7328:7467   */\n      swap1\n      pop\n        /* \"#utility.yul\":7055:7474   */\n      swap2\n      swap1\n      pop\n      jump\t// out\n        /* \"#utility.yul\":7480:7660   */\n    tag_46:\n        /* \"#utility.yul\":7528:7605   */\n      0x4e487b7100000000000000000000000000000000000000000000000000000000\n        /* \"#utility.yul\":7525:7526   */\n      0x00\n        /* \"#utility.yul\":7518:7606   */\n      mstore\n        /* \"#utility.yul\":7625:7629   */\n      0x32\n        /* \"#utility.yul\":7622:7623   */\n      0x04\n        /* \"#utility.yul\":7615:7630   */\n      mstore\n        /* \"#utility.yul\":7649:7653   */\n      0x24\n        /* \"#utility.yul\":7646:7647   */\n      0x00\n        /* \"#utility.yul\":7639:7654   */\n      revert\n        /* \"#utility.yul\":7666:7784   */\n    tag_101:\n        /* \"#utility.yul\":7753:7777   */\n      tag_186\n        /* \"#utility.yul\":7771:7776   */\n      dup2\n        /* \"#utility.yul\":7753:7777   */\n      tag_88\n      jump\t// in\n    tag_186:\n        /* \"#utility.yul\":7748:7751   */\n      dup3\n        /* \"#utility.yul\":7741:7778   */\n      mstore\n        /* \"#utility.yul\":7666:7784   */\n      pop\n      pop\n      jump\t// out\n        /* \"#utility.yul\":7790:8232   */\n    tag_48:\n        /* \"#utility.yul\":7939:7943   */\n      0x00\n        /* \"#utility.yul\":7977:7979   */\n      0x60\n        /* \"#utility.yul\":7966:7975   */\n      dup3\n        /* \"#utility.yul\":7962:7980   */\n      add\n        /* \"#utility.yul\":7954:7980   */\n      swap1\n      pop\n        /* \"#utility.yul\":7990:8061   */\n      tag_188\n        /* \"#utility.yul\":8058:8059   */\n      0x00\n        /* \"#utility.yul\":8047:8056   */\n      dup4\n        /* \"#utility.yul\":8043:8060   */\n      add\n        /* \"#utility.yul\":8034:8040   */\n      dup7\n        /* \"#utility.yul\":7990:8061   */\n      tag_101\n      jump\t// in\n    tag_188:\n        /* \"#utility.yul\":8071:8143   */\n      tag_189\n        /* \"#utility.yul\":8139:8141   */\n      0x20\n        /* \"#utility.yul\":8128:8137   */\n      dup4\n        /* \"#utility.yul\":8124:8142   */\n      add\n        /* \"#utility.yul\":8115:8121   */\n      dup6\n        /* \"#utility.yul\":8071:8143   */\n      tag_101\n      jump\t// in\n    tag_189:\n        /* \"#utility.yul\":8153:8225   */\n      tag_190\n        /* \"#utility.yul\":8221:8223   */\n      0x40\n        /* \"#utility.yul\":8210:8219   */\n      dup4\n        /* \"#utility.yul\":8206:8224   */\n      add\n        /* \"#utility.yul\":8197:8203   */\n      dup5\n        /* \"#utility.yul\":8153:8225   */\n      tag_96\n      jump\t// in\n    tag_190:\n        /* \"#utility.yul\":7790:8232   */\n      swap5\n      swap4\n      pop\n      pop\n      pop\n      pop\n      jump\t// out\n        /* \"#utility.yul\":8238:8429   */\n    tag_50:\n        /* \"#utility.yul\":8278:8282   */\n      0x00\n        /* \"#utility.yul\":8298:8318   */\n      tag_192\n        /* \"#utility.yul\":8316:8317   */\n      dup3\n        /* \"#utility.yul\":8298:8318   */\n      tag_93\n      jump\t// in\n    tag_192:\n        /* \"#utility.yul\":8293:8318   */\n      swap2\n      pop\n        /* \"#utility.yul\":8332:8352   */\n      tag_193\n        /* \"#utility.yul\":8350:8351   */\n      dup4\n        /* \"#utility.yul\":8332:8352   */\n      tag_93\n      jump\t// in\n    tag_193:\n        /* \"#utility.yul\":8327:8352   */\n      swap3\n      pop\n        /* \"#utility.yul\":8371:8372   */\n      dup3\n        /* \"#utility.yul\":8368:8369   */\n      dup3\n        /* \"#utility.yul\":8365:8373   */\n      lt\n        /* \"#utility.yul\":8362:8396   */\n      iszero\n      tag_194\n      jumpi\n        /* \"#utility.yul\":8376:8394   */\n      tag_195\n      tag_97\n      jump\t// in\n    tag_195:\n        /* \"#utility.yul\":8362:8396   */\n    tag_194:\n        /* \"#utility.yul\":8421:8422   */\n      dup3\n        /* \"#utility.yul\":8418:8419   */\n      dup3\n        /* \"#utility.yul\":8414:8423   */\n      sub\n        /* \"#utility.yul\":8406:8423   */\n      swap1\n      pop\n        /* \"#utility.yul\":8238:8429   */\n      swap3\n      swap2\n      pop\n      pop\n      jump\t// out\n        /* \"#utility.yul\":8435:8740   */\n    tag_54:\n        /* \"#utility.yul\":8475:8478   */\n      0x00\n        /* \"#utility.yul\":8494:8514   */\n      tag_197\n        /* \"#utility.yul\":8512:8513   */\n      dup3\n        /* \"#utility.yul\":8494:8514   */\n      tag_93\n      jump\t// in\n    tag_197:\n        /* \"#utility.yul\":8489:8514   */\n      swap2\n      pop\n        /* \"#utility.yul\":8528:8548   */\n      tag_198\n        /* \"#utility.yul\":8546:8547   */\n      dup4\n        /* \"#utility.yul\":8528:8548   */\n      tag_93\n      jump\t// in\n    tag_198:\n        /* \"#utility.yul\":8523:8548   */\n      swap3\n      pop\n        /* \"#utility.yul\":8682:8683   */\n      dup3\n        /* \"#utility.yul\":8614:8680   */\n      0xffffffffffffffffffffffffffffffffffffffffffffffffffffffffffffffff\n        /* \"#utility.yul\":8610:8684   */\n      sub\n        /* \"#utility.yul\":8607:8608   */\n      dup3\n        /* \"#utility.yul\":8604:8685   */\n      gt\n        /* \"#utility.yul\":8601:8708   */\n      iszero\n      tag_199\n      jumpi\n        /* \"#utility.yul\":8688:8706   */\n      tag_200\n      tag_97\n      jump\t// in\n    tag_200:\n        /* \"#utility.yul\":8601:8708   */\n    tag_199:\n        /* \"#utility.yul\":8732:8733   */\n      dup3\n        /* \"#utility.yul\":8729:8730   */\n      dup3\n        /* \"#utility.yul\":8725:8734   */\n      add\n        /* \"#utility.yul\":8718:8734   */\n      swap1\n      pop\n        /* \"#utility.yul\":8435:8740   */\n      swap3\n      swap2\n      pop\n      pop\n      jump\t// out\n        /* \"#utility.yul\":8746:8979   */\n    tag_56:\n        /* \"#utility.yul\":8785:8788   */\n      0x00\n        /* \"#utility.yul\":8808:8832   */\n      tag_202\n        /* \"#utility.yul\":8826:8831   */\n      dup3\n        /* \"#utility.yul\":8808:8832   */\n      tag_93\n      jump\t// in\n    tag_202:\n        /* \"#utility.yul\":8799:8832   */\n      swap2\n      pop\n        /* \"#utility.yul\":8854:8920   */\n      0xffffffffffffffffffffffffffffffffffffffffffffffffffffffffffffffff\n        /* \"#utility.yul\":8847:8852   */\n      dup3\n        /* \"#utility.yul\":8844:8921   */\n      eq\n        /* \"#utility.yul\":8841:8944   */\n      iszero\n      tag_203\n      jumpi\n        /* \"#utility.yul\":8924:8942   */\n      tag_204\n      tag_97\n      jump\t// in\n    tag_204:\n        /* \"#utility.yul\":8841:8944   */\n    tag_203:\n        /* \"#utility.yul\":8971:8972   */\n      0x01\n        /* \"#utility.yul\":8964:8969   */\n      dup3\n        /* \"#utility.yul\":8960:8973   */\n      add\n        /* \"#utility.yul\":8953:8973   */\n      swap1\n      pop\n        /* \"#utility.yul\":8746:8979   */\n      swap2\n      swap1\n      pop\n      jump\t// out\n        /* \"#utility.yul\":8985:9317   */\n    tag_61:\n        /* \"#utility.yul\":9106:9110   */\n      0x00\n        /* \"#utility.yul\":9144:9146   */\n      0x40\n        /* \"#utility.yul\":9133:9142   */\n      dup3\n        /* \"#utility.yul\":9129:9147   */\n      add\n        /* \"#utility.yul\":9121:9147   */\n      swap1\n      pop\n        /* \"#utility.yul\":9157:9228   */\n      tag_206\n        /* \"#utility.yul\":9225:9226   */\n      0x00\n        /* \"#utility.yul\":9214:9223   */\n      dup4\n        /* \"#utility.yul\":9210:9227   */\n      add\n        /* \"#utility.yul\":9201:9207   */\n      dup6\n        /* \"#utility.yul\":9157:9228   */\n      tag_101\n      jump\t// in\n    tag_206:\n        /* \"#utility.yul\":9238:9310   */\n      tag_207\n        /* \"#utility.yul\":9306:9308   */\n      0x20\n        /* \"#utility.yul\":9295:9304   */\n      dup4\n        /* \"#utility.yul\":9291:9309   */\n      add\n        /* \"#utility.yul\":9282:9288   */\n      dup5\n        /* \"#utility.yul\":9238:9310   */\n      tag_96\n      jump\t// in\n    tag_207:\n        /* \"#utility.yul\":8985:9317   */\n      swap4\n      swap3\n      pop\n      pop\n      pop\n      jump\t// out\n\n    auxdata: 0xa26469706673582212206ca1bb5e249e306d90ab669d2bd670d15fb4b3f81ec8b483877bae2a2966393e64736f6c634300080b0033\n}\n",
				"bytecode": {
					"linkReferences": {},
					"object": "608060405234801561001057600080fd5b50610cab806100206000396000f3fe6080604052600436106100555760003560e01c80631939c1ff1461005a57806327e235e3146100835780632e1a7d4d146100c05780634610a131146100e9578063a9059cbb14610105578063d0e30db01461012e575b600080fd5b34801561006657600080fd5b50610081600480360381019061007c91906108de565b610138565b005b34801561008f57600080fd5b506100aa60048036038101906100a5919061093a565b610302565b6040516100b79190610976565b60405180910390f35b3480156100cc57600080fd5b506100e760048036038101906100e29190610991565b61031a565b005b61010360048036038101906100fe9190610991565b61042c565b005b34801561011157600080fd5b5061012c600480360381019061012791906109be565b6104e3565b005b61013661064d565b005b8082516101459190610a2d565b6000803373ffffffffffffffffffffffffffffffffffffffff1673ffffffffffffffffffffffffffffffffffffffff1681526020019081526020016000205410156101c5576040517f08c379a00000000000000000000000000000000000000000000000000000000081526004016101bc90610ae4565b60405180910390fd5b60005b82518110156102fd577fddf252ad1be2c89b69c2b068fc378daa952ba7f163c4a11628f55a4df523b3ef3384838151811061020657610205610b04565b5b60200260200101518460405161021e93929190610b42565b60405180910390a1816000803373ffffffffffffffffffffffffffffffffffffffff1673ffffffffffffffffffffffffffffffffffffffff16815260200190815260200160002060008282546102749190610b79565b925050819055508160008085848151811061029257610291610b04565b5b602002602001015173ffffffffffffffffffffffffffffffffffffffff1673ffffffffffffffffffffffffffffffffffffffff16815260200190815260200160002060008282546102e39190610bad565b9250508190555080806102f590610c03565b9150506101c8565b505050565b60006020528060005260406000206000915090505481565b806000803373ffffffffffffffffffffffffffffffffffffffff1673ffffffffffffffffffffffffffffffffffffffff16815260200190815260200160002054101561039b576040517f08c379a000000000000000000000000000000000000000000000000000000000815260040161039290610ae4565b60405180910390fd5b7f7fcf532c15f0a6db0bd6d0e038bea71d30d808c7d98cb3bf7268a95bf5081b6533826040516103cc929190610c4c565b60405180910390a1806000803373ffffffffffffffffffffffffffffffffffffffff1673ffffffffffffffffffffffffffffffffffffffff16815260200190815260200160002060008282546104229190610b79565b9250508190555050565b7fe1fffcc4923d04b559f4d29a8bfc6cda04eb5b0d3c460751c2402c5c5cc9109c33670de0b6b3a7640000836104629190610a2d565b604051610470929190610c4c565b60405180910390a1670de0b6b3a76400008161048c9190610a2d565b6000803373ffffffffffffffffffffffffffffffffffffffff1673ffffffffffffffffffffffffffffffffffffffff16815260200190815260200160002060008282546104d99190610bad565b9250508190555050565b806000803373ffffffffffffffffffffffffffffffffffffffff1673ffffffffffffffffffffffffffffffffffffffff168152602001908152602001600020541015610564576040517f08c379a000000000000000000000000000000000000000000000000000000000815260040161055b90610ae4565b60405180910390fd5b7fddf252ad1be2c89b69c2b068fc378daa952ba7f163c4a11628f55a4df523b3ef33838360405161059793929190610b42565b60405180910390a1806000803373ffffffffffffffffffffffffffffffffffffffff1673ffffffffffffffffffffffffffffffffffffffff16815260200190815260200160002060008282546105ed9190610b79565b92505081905550806000808473ffffffffffffffffffffffffffffffffffffffff1673ffffffffffffffffffffffffffffffffffffffff16815260200190815260200160002060008282546106429190610bad565b925050819055505050565b7fe1fffcc4923d04b559f4d29a8bfc6cda04eb5b0d3c460751c2402c5c5cc9109c333460405161067e929190610c4c565b60405180910390a1346000803373ffffffffffffffffffffffffffffffffffffffff1673ffffffffffffffffffffffffffffffffffffffff16815260200190815260200160002060008282546106d49190610bad565b92505081905550565b6000604051905090565b600080fd5b600080fd5b600080fd5b6000601f19601f8301169050919050565b7f4e487b7100000000000000000000000000000000000000000000000000000000600052604160045260246000fd5b61073f826106f6565b810181811067ffffffffffffffff8211171561075e5761075d610707565b5b80604052505050565b60006107716106dd565b905061077d8282610736565b919050565b600067ffffffffffffffff82111561079d5761079c610707565b5b602082029050602081019050919050565b600080fd5b600073ffffffffffffffffffffffffffffffffffffffff82169050919050565b60006107de826107b3565b9050919050565b6107ee816107d3565b81146107f957600080fd5b50565b60008135905061080b816107e5565b92915050565b600061082461081f84610782565b610767565b90508083825260208201905060208402830185811115610847576108466107ae565b5b835b81811015610870578061085c88826107fc565b845260208401935050602081019050610849565b5050509392505050565b600082601f83011261088f5761088e6106f1565b5b813561089f848260208601610811565b91505092915050565b6000819050919050565b6108bb816108a8565b81146108c657600080fd5b50565b6000813590506108d8816108b2565b92915050565b600080604083850312156108f5576108f46106e7565b5b600083013567ffffffffffffffff811115610913576109126106ec565b5b61091f8582860161087a565b9250506020610930858286016108c9565b9150509250929050565b6000602082840312156109505761094f6106e7565b5b600061095e848285016107fc565b91505092915050565b610970816108a8565b82525050565b600060208201905061098b6000830184610967565b92915050565b6000602082840312156109a7576109a66106e7565b5b60006109b5848285016108c9565b91505092915050565b600080604083850312156109d5576109d46106e7565b5b60006109e3858286016107fc565b92505060206109f4858286016108c9565b9150509250929050565b7f4e487b7100000000000000000000000000000000000000000000000000000000600052601160045260246000fd5b6000610a38826108a8565b9150610a43836108a8565b9250817fffffffffffffffffffffffffffffffffffffffffffffffffffffffffffffffff0483118215151615610a7c57610a7b6109fe565b5b828202905092915050565b600082825260208201905092915050565b7f496e73756666696369656e742066756e64730000000000000000000000000000600082015250565b6000610ace601283610a87565b9150610ad982610a98565b602082019050919050565b60006020820190508181036000830152610afd81610ac1565b9050919050565b7f4e487b7100000000000000000000000000000000000000000000000000000000600052603260045260246000fd5b610b3c816107d3565b82525050565b6000606082019050610b576000830186610b33565b610b646020830185610b33565b610b716040830184610967565b949350505050565b6000610b84826108a8565b9150610b8f836108a8565b925082821015610ba257610ba16109fe565b5b828203905092915050565b6000610bb8826108a8565b9150610bc3836108a8565b9250827fffffffffffffffffffffffffffffffffffffffffffffffffffffffffffffffff03821115610bf857610bf76109fe565b5b828201905092915050565b6000610c0e826108a8565b91507fffffffffffffffffffffffffffffffffffffffffffffffffffffffffffffffff821415610c4157610c406109fe565b5b600182019050919050565b6000604082019050610c616000830185610b33565b610c6e6020830184610967565b939250505056fea26469706673582212206ca1bb5e249e306d90ab669d2bd670d15fb4b3f81ec8b483877bae2a2966393e64736f6c634300080b0033",
					"opcodes": "PUSH1 0x80 PUSH1 0x40 MSTORE CALLVALUE DUP1 ISZERO PUSH2 0x10 JUMPI PUSH1 0x0 DUP1 REVERT JUMPDEST POP PUSH2 0xCAB DUP1 PUSH2 0x20 PUSH1 0x0 CODECOPY PUSH1 0x0 RETURN INVALID PUSH1 0x80 PUSH1 0x40 MSTORE PUSH1 0x4 CALLDATASIZE LT PUSH2 0x55 JUMPI PUSH1 0x0 CALLDATALOAD PUSH1 0xE0 SHR DUP1 PUSH4 0x1939C1FF EQ PUSH2 0x5A JUMPI DUP1 PUSH4 0x27E235E3 EQ PUSH2 0x83 JUMPI DUP1 PUSH4 0x2E1A7D4D EQ PUSH2 0xC0 JUMPI DUP1 PUSH4 0x4610A131 EQ PUSH2 0xE9 JUMPI DUP1 PUSH4 0xA9059CBB EQ PUSH2 0x105 JUMPI DUP1 PUSH4 0xD0E30DB0 EQ PUSH2 0x12E JUMPI JUMPDEST PUSH1 0x0 DUP1 REVERT JUMPDEST CALLVALUE DUP1 ISZERO PUSH2 0x66 JUMPI PUSH1 0x0 DUP1 REVERT JUMPDEST POP PUSH2 0x81 PUSH1 0x4 DUP1 CALLDATASIZE SUB DUP2 ADD SWAP1 PUSH2 0x7C SWAP2 SWAP1 PUSH2 0x8DE JUMP JUMPDEST PUSH2 0x138 JUMP JUMPDEST STOP JUMPDEST CALLVALUE DUP1 ISZERO PUSH2 0x8F JUMPI PUSH1 0x0 DUP1 REVERT JUMPDEST POP PUSH2 0xAA PUSH1 0x4 DUP1 CALLDATASIZE SUB DUP2 ADD SWAP1 PUSH2 0xA5 SWAP2 SWAP1 PUSH2 0x93A JUMP JUMPDEST PUSH2 0x302 JUMP JUMPDEST PUSH1 0x40 MLOAD PUSH2 0xB7 SWAP2 SWAP1 PUSH2 0x976 JUMP JUMPDEST PUSH1 0x40 MLOAD DUP1 SWAP2 SUB SWAP1 RETURN JUMPDEST CALLVALUE DUP1 ISZERO PUSH2 0xCC JUMPI PUSH1 0x0 DUP1 REVERT JUMPDEST POP PUSH2 0xE7 PUSH1 0x4 DUP1 CALLDATASIZE SUB DUP2 ADD SWAP1 PUSH2 0xE2 SWAP2 SWAP1 PUSH2 0x991 JUMP JUMPDEST PUSH2 0x31A JUMP JUMPDEST STOP JUMPDEST PUSH2 0x103 PUSH1 0x4 DUP1 CALLDATASIZE SUB DUP2 ADD SWAP1 PUSH2 0xFE SWAP2 SWAP1 PUSH2 0x991 JUMP JUMPDEST PUSH2 0x42C JUMP JUMPDEST STOP JUMPDEST CALLVALUE DUP1 ISZERO PUSH2 0x111 JUMPI PUSH1 0x0 DUP1 REVERT JUMPDEST POP PUSH2 0x12C PUSH1 0x4 DUP1 CALLDATASIZE SUB DUP2 ADD SWAP1 PUSH2 0x127 SWAP2 SWAP1 PUSH2 0x9BE JUMP JUMPDEST PUSH2 0x4E3 JUMP JUMPDEST STOP JUMPDEST PUSH2 0x136 PUSH2 0x64D JUMP JUMPDEST STOP JUMPDEST DUP1 DUP3 MLOAD PUSH2 0x145 SWAP2 SWAP1 PUSH2 0xA2D JUMP JUMPDEST PUSH1 0x0 DUP1 CALLER PUSH20 0xFFFFFFFFFFFFFFFFFFFFFFFFFFFFFFFFFFFFFFFF AND PUSH20 0xFFFFFFFFFFFFFFFFFFFFFFFFFFFFFFFFFFFFFFFF AND DUP2 MSTORE PUSH1 0x20 ADD SWAP1 DUP2 MSTORE PUSH1 0x20 ADD PUSH1 0x0 KECCAK256 SLOAD LT ISZERO PUSH2 0x1C5 JUMPI PUSH1 0x40 MLOAD PUSH32 0x8C379A000000000000000000000000000000000000000000000000000000000 DUP2 MSTORE PUSH1 0x4 ADD PUSH2 0x1BC SWAP1 PUSH2 0xAE4 JUMP JUMPDEST PUSH1 0x40 MLOAD DUP1 SWAP2 SUB SWAP1 REVERT JUMPDEST PUSH1 0x0 JUMPDEST DUP3 MLOAD DUP2 LT ISZERO PUSH2 0x2FD JUMPI PUSH32 0xDDF252AD1BE2C89B69C2B068FC378DAA952BA7F163C4A11628F55A4DF523B3EF CALLER DUP5 DUP4 DUP2 MLOAD DUP2 LT PUSH2 0x206 JUMPI PUSH2 0x205 PUSH2 0xB04 JUMP JUMPDEST JUMPDEST PUSH1 0x20 MUL PUSH1 0x20 ADD ADD MLOAD DUP5 PUSH1 0x40 MLOAD PUSH2 0x21E SWAP4 SWAP3 SWAP2 SWAP1 PUSH2 0xB42 JUMP JUMPDEST PUSH1 0x40 MLOAD DUP1 SWAP2 SUB SWAP1 LOG1 DUP2 PUSH1 0x0 DUP1 CALLER PUSH20 0xFFFFFFFFFFFFFFFFFFFFFFFFFFFFFFFFFFFFFFFF AND PUSH20 0xFFFFFFFFFFFFFFFFFFFFFFFFFFFFFFFFFFFFFFFF AND DUP2 MSTORE PUSH1 0x20 ADD SWAP1 DUP2 MSTORE PUSH1 0x20 ADD PUSH1 0x0 KECCAK256 PUSH1 0x0 DUP3 DUP3 SLOAD PUSH2 0x274 SWAP2 SWAP1 PUSH2 0xB79 JUMP JUMPDEST SWAP3 POP POP DUP2 SWAP1 SSTORE POP DUP2 PUSH1 0x0 DUP1 DUP6 DUP5 DUP2 MLOAD DUP2 LT PUSH2 0x292 JUMPI PUSH2 0x291 PUSH2 0xB04 JUMP JUMPDEST JUMPDEST PUSH1 0x20 MUL PUSH1 0x20 ADD ADD MLOAD PUSH20 0xFFFFFFFFFFFFFFFFFFFFFFFFFFFFFFFFFFFFFFFF AND PUSH20 0xFFFFFFFFFFFFFFFFFFFFFFFFFFFFFFFFFFFFFFFF AND DUP2 MSTORE PUSH1 0x20 ADD SWAP1 DUP2 MSTORE PUSH1 0x20 ADD PUSH1 0x0 KECCAK256 PUSH1 0x0 DUP3 DUP3 SLOAD PUSH2 0x2E3 SWAP2 SWAP1 PUSH2 0xBAD JUMP JUMPDEST SWAP3 POP POP DUP2 SWAP1 SSTORE POP DUP1 DUP1 PUSH2 0x2F5 SWAP1 PUSH2 0xC03 JUMP JUMPDEST SWAP2 POP POP PUSH2 0x1C8 JUMP JUMPDEST POP POP POP JUMP JUMPDEST PUSH1 0x0 PUSH1 0x20 MSTORE DUP1 PUSH1 0x0 MSTORE PUSH1 0x40 PUSH1 0x0 KECCAK256 PUSH1 0x0 SWAP2 POP SWAP1 POP SLOAD DUP2 JUMP JUMPDEST DUP1 PUSH1 0x0 DUP1 CALLER PUSH20 0xFFFFFFFFFFFFFFFFFFFFFFFFFFFFFFFFFFFFFFFF AND PUSH20 0xFFFFFFFFFFFFFFFFFFFFFFFFFFFFFFFFFFFFFFFF AND DUP2 MSTORE PUSH1 0x20 ADD SWAP1 DUP2 MSTORE PUSH1 0x20 ADD PUSH1 0x0 KECCAK256 SLOAD LT ISZERO PUSH2 0x39B JUMPI PUSH1 0x40 MLOAD PUSH32 0x8C379A000000000000000000000000000000000000000000000000000000000 DUP2 MSTORE PUSH1 0x4 ADD PUSH2 0x392 SWAP1 PUSH2 0xAE4 JUMP JUMPDEST PUSH1 0x40 MLOAD DUP1 SWAP2 SUB SWAP1 REVERT JUMPDEST PUSH32 0x7FCF532C15F0A6DB0BD6D0E038BEA71D30D808C7D98CB3BF7268A95BF5081B65 CALLER DUP3 PUSH1 0x40 MLOAD PUSH2 0x3CC SWAP3 SWAP2 SWAP1 PUSH2 0xC4C JUMP JUMPDEST PUSH1 0x40 MLOAD DUP1 SWAP2 SUB SWAP1 LOG1 DUP1 PUSH1 0x0 DUP1 CALLER PUSH20 0xFFFFFFFFFFFFFFFFFFFFFFFFFFFFFFFFFFFFFFFF AND PUSH20 0xFFFFFFFFFFFFFFFFFFFFFFFFFFFFFFFFFFFFFFFF AND DUP2 MSTORE PUSH1 0x20 ADD SWAP1 DUP2 MSTORE PUSH1 0x20 ADD PUSH1 0x0 KECCAK256 PUSH1 0x0 DUP3 DUP3 SLOAD PUSH2 0x422 SWAP2 SWAP1 PUSH2 0xB79 JUMP JUMPDEST SWAP3 POP POP DUP2 SWAP1 SSTORE POP POP JUMP JUMPDEST PUSH32 0xE1FFFCC4923D04B559F4D29A8BFC6CDA04EB5B0D3C460751C2402C5C5CC9109C CALLER PUSH8 0xDE0B6B3A7640000 DUP4 PUSH2 0x462 SWAP2 SWAP1 PUSH2 0xA2D JUMP JUMPDEST PUSH1 0x40 MLOAD PUSH2 0x470 SWAP3 SWAP2 SWAP1 PUSH2 0xC4C JUMP JUMPDEST PUSH1 0x40 MLOAD DUP1 SWAP2 SUB SWAP1 LOG1 PUSH8 0xDE0B6B3A7640000 DUP2 PUSH2 0x48C SWAP2 SWAP1 PUSH2 0xA2D JUMP JUMPDEST PUSH1 0x0 DUP1 CALLER PUSH20 0xFFFFFFFFFFFFFFFFFFFFFFFFFFFFFFFFFFFFFFFF AND PUSH20 0xFFFFFFFFFFFFFFFFFFFFFFFFFFFFFFFFFFFFFFFF AND DUP2 MSTORE PUSH1 0x20 ADD SWAP1 DUP2 MSTORE PUSH1 0x20 ADD PUSH1 0x0 KECCAK256 PUSH1 0x0 DUP3 DUP3 SLOAD PUSH2 0x4D9 SWAP2 SWAP1 PUSH2 0xBAD JUMP JUMPDEST SWAP3 POP POP DUP2 SWAP1 SSTORE POP POP JUMP JUMPDEST DUP1 PUSH1 0x0 DUP1 CALLER PUSH20 0xFFFFFFFFFFFFFFFFFFFFFFFFFFFFFFFFFFFFFFFF AND PUSH20 0xFFFFFFFFFFFFFFFFFFFFFFFFFFFFFFFFFFFFFFFF AND DUP2 MSTORE PUSH1 0x20 ADD SWAP1 DUP2 MSTORE PUSH1 0x20 ADD PUSH1 0x0 KECCAK256 SLOAD LT ISZERO PUSH2 0x564 JUMPI PUSH1 0x40 MLOAD PUSH32 0x8C379A000000000000000000000000000000000000000000000000000000000 DUP2 MSTORE PUSH1 0x4 ADD PUSH2 0x55B SWAP1 PUSH2 0xAE4 JUMP JUMPDEST PUSH1 0x40 MLOAD DUP1 SWAP2 SUB SWAP1 REVERT JUMPDEST PUSH32 0xDDF252AD1BE2C89B69C2B068FC378DAA952BA7F163C4A11628F55A4DF523B3EF CALLER DUP4 DUP4 PUSH1 0x40 MLOAD PUSH2 0x597 SWAP4 SWAP3 SWAP2 SWAP1 PUSH2 0xB42 JUMP JUMPDEST PUSH1 0x40 MLOAD DUP1 SWAP2 SUB SWAP1 LOG1 DUP1 PUSH1 0x0 DUP1 CALLER PUSH20 0xFFFFFFFFFFFFFFFFFFFFFFFFFFFFFFFFFFFFFFFF AND PUSH20 0xFFFFFFFFFFFFFFFFFFFFFFFFFFFFFFFFFFFFFFFF AND DUP2 MSTORE PUSH1 0x20 ADD SWAP1 DUP2 MSTORE PUSH1 0x20 ADD PUSH1 0x0 KECCAK256 PUSH1 0x0 DUP3 DUP3 SLOAD PUSH2 0x5ED SWAP2 SWAP1 PUSH2 0xB79 JUMP JUMPDEST SWAP3 POP POP DUP2 SWAP1 SSTORE POP DUP1 PUSH1 0x0 DUP1 DUP5 PUSH20 0xFFFFFFFFFFFFFFFFFFFFFFFFFFFFFFFFFFFFFFFF AND PUSH20 0xFFFFFFFFFFFFFFFFFFFFFFFFFFFFFFFFFFFFFFFF AND DUP2 MSTORE PUSH1 0x20 ADD SWAP1 DUP2 MSTORE PUSH1 0x20 ADD PUSH1 0x0 KECCAK256 PUSH1 0x0 DUP3 DUP3 SLOAD PUSH2 0x642 SWAP2 SWAP1 PUSH2 0xBAD JUMP JUMPDEST SWAP3 POP POP DUP2 SWAP1 SSTORE POP POP POP JUMP JUMPDEST PUSH32 0xE1FFFCC4923D04B559F4D29A8BFC6CDA04EB5B0D3C460751C2402C5C5CC9109C CALLER CALLVALUE PUSH1 0x40 MLOAD PUSH2 0x67E SWAP3 SWAP2 SWAP1 PUSH2 0xC4C JUMP JUMPDEST PUSH1 0x40 MLOAD DUP1 SWAP2 SUB SWAP1 LOG1 CALLVALUE PUSH1 0x0 DUP1 CALLER PUSH20 0xFFFFFFFFFFFFFFFFFFFFFFFFFFFFFFFFFFFFFFFF AND PUSH20 0xFFFFFFFFFFFFFFFFFFFFFFFFFFFFFFFFFFFFFFFF AND DUP2 MSTORE PUSH1 0x20 ADD SWAP1 DUP2 MSTORE PUSH1 0x20 ADD PUSH1 0x0 KECCAK256 PUSH1 0x0 DUP3 DUP3 SLOAD PUSH2 0x6D4 SWAP2 SWAP1 PUSH2 0xBAD JUMP JUMPDEST SWAP3 POP POP DUP2 SWAP1 SSTORE POP JUMP JUMPDEST PUSH1 0x0 PUSH1 0x40 MLOAD SWAP1 POP SWAP1 JUMP JUMPDEST PUSH1 0x0 DUP1 REVERT JUMPDEST PUSH1 0x0 DUP1 REVERT JUMPDEST PUSH1 0x0 DUP1 REVERT JUMPDEST PUSH1 0x0 PUSH1 0x1F NOT PUSH1 0x1F DUP4 ADD AND SWAP1 POP SWAP2 SWAP1 POP JUMP JUMPDEST PUSH32 0x4E487B7100000000000000000000000000000000000000000000000000000000 PUSH1 0x0 MSTORE PUSH1 0x41 PUSH1 0x4 MSTORE PUSH1 0x24 PUSH1 0x0 REVERT JUMPDEST PUSH2 0x73F DUP3 PUSH2 0x6F6 JUMP JUMPDEST DUP2 ADD DUP2 DUP2 LT PUSH8 0xFFFFFFFFFFFFFFFF DUP3 GT OR ISZERO PUSH2 0x75E JUMPI PUSH2 0x75D PUSH2 0x707 JUMP JUMPDEST JUMPDEST DUP1 PUSH1 0x40 MSTORE POP POP POP JUMP JUMPDEST PUSH1 0x0 PUSH2 0x771 PUSH2 0x6DD JUMP JUMPDEST SWAP1 POP PUSH2 0x77D DUP3 DUP3 PUSH2 0x736 JUMP JUMPDEST SWAP2 SWAP1 POP JUMP JUMPDEST PUSH1 0x0 PUSH8 0xFFFFFFFFFFFFFFFF DUP3 GT ISZERO PUSH2 0x79D JUMPI PUSH2 0x79C PUSH2 0x707 JUMP JUMPDEST JUMPDEST PUSH1 0x20 DUP3 MUL SWAP1 POP PUSH1 0x20 DUP2 ADD SWAP1 POP SWAP2 SWAP1 POP JUMP JUMPDEST PUSH1 0x0 DUP1 REVERT JUMPDEST PUSH1 0x0 PUSH20 0xFFFFFFFFFFFFFFFFFFFFFFFFFFFFFFFFFFFFFFFF DUP3 AND SWAP1 POP SWAP2 SWAP1 POP JUMP JUMPDEST PUSH1 0x0 PUSH2 0x7DE DUP3 PUSH2 0x7B3 JUMP JUMPDEST SWAP1 POP SWAP2 SWAP1 POP JUMP JUMPDEST PUSH2 0x7EE DUP2 PUSH2 0x7D3 JUMP JUMPDEST DUP2 EQ PUSH2 0x7F9 JUMPI PUSH1 0x0 DUP1 REVERT JUMPDEST POP JUMP JUMPDEST PUSH1 0x0 DUP2 CALLDATALOAD SWAP1 POP PUSH2 0x80B DUP2 PUSH2 0x7E5 JUMP JUMPDEST SWAP3 SWAP2 POP POP JUMP JUMPDEST PUSH1 0x0 PUSH2 0x824 PUSH2 0x81F DUP5 PUSH2 0x782 JUMP JUMPDEST PUSH2 0x767 JUMP JUMPDEST SWAP1 POP DUP1 DUP4 DUP3 MSTORE PUSH1 0x20 DUP3 ADD SWAP1 POP PUSH1 0x20 DUP5 MUL DUP4 ADD DUP6 DUP2 GT ISZERO PUSH2 0x847 JUMPI PUSH2 0x846 PUSH2 0x7AE JUMP JUMPDEST JUMPDEST DUP4 JUMPDEST DUP2 DUP2 LT ISZERO PUSH2 0x870 JUMPI DUP1 PUSH2 0x85C DUP9 DUP3 PUSH2 0x7FC JUMP JUMPDEST DUP5 MSTORE PUSH1 0x20 DUP5 ADD SWAP4 POP POP PUSH1 0x20 DUP2 ADD SWAP1 POP PUSH2 0x849 JUMP JUMPDEST POP POP POP SWAP4 SWAP3 POP POP POP JUMP JUMPDEST PUSH1 0x0 DUP3 PUSH1 0x1F DUP4 ADD SLT PUSH2 0x88F JUMPI PUSH2 0x88E PUSH2 0x6F1 JUMP JUMPDEST JUMPDEST DUP2 CALLDATALOAD PUSH2 0x89F DUP5 DUP3 PUSH1 0x20 DUP7 ADD PUSH2 0x811 JUMP JUMPDEST SWAP2 POP POP SWAP3 SWAP2 POP POP JUMP JUMPDEST PUSH1 0x0 DUP2 SWAP1 POP SWAP2 SWAP1 POP JUMP JUMPDEST PUSH2 0x8BB DUP2 PUSH2 0x8A8 JUMP JUMPDEST DUP2 EQ PUSH2 0x8C6 JUMPI PUSH1 0x0 DUP1 REVERT JUMPDEST POP JUMP JUMPDEST PUSH1 0x0 DUP2 CALLDATALOAD SWAP1 POP PUSH2 0x8D8 DUP2 PUSH2 0x8B2 JUMP JUMPDEST SWAP3 SWAP2 POP POP JUMP JUMPDEST PUSH1 0x0 DUP1 PUSH1 0x40 DUP4 DUP6 SUB SLT ISZERO PUSH2 0x8F5 JUMPI PUSH2 0x8F4 PUSH2 0x6E7 JUMP JUMPDEST JUMPDEST PUSH1 0x0 DUP4 ADD CALLDATALOAD PUSH8 0xFFFFFFFFFFFFFFFF DUP2 GT ISZERO PUSH2 0x913 JUMPI PUSH2 0x912 PUSH2 0x6EC JUMP JUMPDEST JUMPDEST PUSH2 0x91F DUP6 DUP3 DUP7 ADD PUSH2 0x87A JUMP JUMPDEST SWAP3 POP POP PUSH1 0x20 PUSH2 0x930 DUP6 DUP3 DUP7 ADD PUSH2 0x8C9 JUMP JUMPDEST SWAP2 POP POP SWAP3 POP SWAP3 SWAP1 POP JUMP JUMPDEST PUSH1 0x0 PUSH1 0x20 DUP3 DUP5 SUB SLT ISZERO PUSH2 0x950 JUMPI PUSH2 0x94F PUSH2 0x6E7 JUMP JUMPDEST JUMPDEST PUSH1 0x0 PUSH2 0x95E DUP5 DUP3 DUP6 ADD PUSH2 0x7FC JUMP JUMPDEST SWAP2 POP POP SWAP3 SWAP2 POP POP JUMP JUMPDEST PUSH2 0x970 DUP2 PUSH2 0x8A8 JUMP JUMPDEST DUP3 MSTORE POP POP JUMP JUMPDEST PUSH1 0x0 PUSH1 0x20 DUP3 ADD SWAP1 POP PUSH2 0x98B PUSH1 0x0 DUP4 ADD DUP5 PUSH2 0x967 JUMP JUMPDEST SWAP3 SWAP2 POP POP JUMP JUMPDEST PUSH1 0x0 PUSH1 0x20 DUP3 DUP5 SUB SLT ISZERO PUSH2 0x9A7 JUMPI PUSH2 0x9A6 PUSH2 0x6E7 JUMP JUMPDEST JUMPDEST PUSH1 0x0 PUSH2 0x9B5 DUP5 DUP3 DUP6 ADD PUSH2 0x8C9 JUMP JUMPDEST SWAP2 POP POP SWAP3 SWAP2 POP POP JUMP JUMPDEST PUSH1 0x0 DUP1 PUSH1 0x40 DUP4 DUP6 SUB SLT ISZERO PUSH2 0x9D5 JUMPI PUSH2 0x9D4 PUSH2 0x6E7 JUMP JUMPDEST JUMPDEST PUSH1 0x0 PUSH2 0x9E3 DUP6 DUP3 DUP7 ADD PUSH2 0x7FC JUMP JUMPDEST SWAP3 POP POP PUSH1 0x20 PUSH2 0x9F4 DUP6 DUP3 DUP7 ADD PUSH2 0x8C9 JUMP JUMPDEST SWAP2 POP POP SWAP3 POP SWAP3 SWAP1 POP JUMP JUMPDEST PUSH32 0x4E487B7100000000000000000000000000000000000000000000000000000000 PUSH1 0x0 MSTORE PUSH1 0x11 PUSH1 0x4 MSTORE PUSH1 0x24 PUSH1 0x0 REVERT JUMPDEST PUSH1 0x0 PUSH2 0xA38 DUP3 PUSH2 0x8A8 JUMP JUMPDEST SWAP2 POP PUSH2 0xA43 DUP4 PUSH2 0x8A8 JUMP JUMPDEST SWAP3 POP DUP2 PUSH32 0xFFFFFFFFFFFFFFFFFFFFFFFFFFFFFFFFFFFFFFFFFFFFFFFFFFFFFFFFFFFFFFFF DIV DUP4 GT DUP3 ISZERO ISZERO AND ISZERO PUSH2 0xA7C JUMPI PUSH2 0xA7B PUSH2 0x9FE JUMP JUMPDEST JUMPDEST DUP3 DUP3 MUL SWAP1 POP SWAP3 SWAP2 POP POP JUMP JUMPDEST PUSH1 0x0 DUP3 DUP3 MSTORE PUSH1 0x20 DUP3 ADD SWAP1 POP SWAP3 SWAP2 POP POP JUMP JUMPDEST PUSH32 0x496E73756666696369656E742066756E64730000000000000000000000000000 PUSH1 0x0 DUP3 ADD MSTORE POP JUMP JUMPDEST PUSH1 0x0 PUSH2 0xACE PUSH1 0x12 DUP4 PUSH2 0xA87 JUMP JUMPDEST SWAP2 POP PUSH2 0xAD9 DUP3 PUSH2 0xA98 JUMP JUMPDEST PUSH1 0x20 DUP3 ADD SWAP1 POP SWAP2 SWAP1 POP JUMP JUMPDEST PUSH1 0x0 PUSH1 0x20 DUP3 ADD SWAP1 POP DUP2 DUP2 SUB PUSH1 0x0 DUP4 ADD MSTORE PUSH2 0xAFD DUP2 PUSH2 0xAC1 JUMP JUMPDEST SWAP1 POP SWAP2 SWAP1 POP JUMP JUMPDEST PUSH32 0x4E487B7100000000000000000000000000000000000000000000000000000000 PUSH1 0x0 MSTORE PUSH1 0x32 PUSH1 0x4 MSTORE PUSH1 0x24 PUSH1 0x0 REVERT JUMPDEST PUSH2 0xB3C DUP2 PUSH2 0x7D3 JUMP JUMPDEST DUP3 MSTORE POP POP JUMP JUMPDEST PUSH1 0x0 PUSH1 0x60 DUP3 ADD SWAP1 POP PUSH2 0xB57 PUSH1 0x0 DUP4 ADD DUP7 PUSH2 0xB33 JUMP JUMPDEST PUSH2 0xB64 PUSH1 0x20 DUP4 ADD DUP6 PUSH2 0xB33 JUMP JUMPDEST PUSH2 0xB71 PUSH1 0x40 DUP4 ADD DUP5 PUSH2 0x967 JUMP JUMPDEST SWAP5 SWAP4 POP POP POP POP JUMP JUMPDEST PUSH1 0x0 PUSH2 0xB84 DUP3 PUSH2 0x8A8 JUMP JUMPDEST SWAP2 POP PUSH2 0xB8F DUP4 PUSH2 0x8A8 JUMP JUMPDEST SWAP3 POP DUP3 DUP3 LT ISZERO PUSH2 0xBA2 JUMPI PUSH2 0xBA1 PUSH2 0x9FE JUMP JUMPDEST JUMPDEST DUP3 DUP3 SUB SWAP1 POP SWAP3 SWAP2 POP POP JUMP JUMPDEST PUSH1 0x0 PUSH2 0xBB8 DUP3 PUSH2 0x8A8 JUMP JUMPDEST SWAP2 POP PUSH2 0xBC3 DUP4 PUSH2 0x8A8 JUMP JUMPDEST SWAP3 POP DUP3 PUSH32 0xFFFFFFFFFFFFFFFFFFFFFFFFFFFFFFFFFFFFFFFFFFFFFFFFFFFFFFFFFFFFFFFF SUB DUP3 GT ISZERO PUSH2 0xBF8 JUMPI PUSH2 0xBF7 PUSH2 0x9FE JUMP JUMPDEST JUMPDEST DUP3 DUP3 ADD SWAP1 POP SWAP3 SWAP2 POP POP JUMP JUMPDEST PUSH1 0x0 PUSH2 0xC0E DUP3 PUSH2 0x8A8 JUMP JUMPDEST SWAP2 POP PUSH32 0xFFFFFFFFFFFFFFFFFFFFFFFFFFFFFFFFFFFFFFFFFFFFFFFFFFFFFFFFFFFFFFFF DUP3 EQ ISZERO PUSH2 0xC41 JUMPI PUSH2 0xC40 PUSH2 0x9FE JUMP JUMPDEST JUMPDEST PUSH1 0x1 DUP3 ADD SWAP1 POP SWAP2 SWAP1 POP JUMP JUMPDEST PUSH1 0x0 PUSH1 0x40 DUP3 ADD SWAP1 POP PUSH2 0xC61 PUSH1 0x0 DUP4 ADD DUP6 PUSH2 0xB33 JUMP JUMPDEST PUSH2 0xC6E PUSH1 0x20 DUP4 ADD DUP5 PUSH2 0x967 JUMP JUMPDEST SWAP4 SWAP3 POP POP POP JUMP INVALID LOG2 PUSH5 0x6970667358 0x22 SLT KECCAK256 PUSH13 0xA1BB5E249E306D90AB669D2BD6 PUSH17 0xD15FB4B3F81EC8B483877BAE2A2966393E PUSH5 0x736F6C6343 STOP ADDMOD SIGNEXTEND STOP CALLER "
				},
				"gasEstimates": {
					"creation": {
						"codeDepositCost": "648600",
						"executionCost": "683",
						"totalCost": "649283"
					},
					"external": {
						"balances(address)": "2814",
						"deposit()": "infinite",
						"depositBro(uint256)": "infinite",
						"transfer(address,uint256)": "infinite",
						"transfer(address[],uint256)": "infinite",
						"withdraw(uint256)": "infinite"
					}
				},
				"methodIdentifiers": {
					"balances(address)": "27e235e3",
					"deposit()": "d0e30db0",
					"depositBro(uint256)": "4610a131",
					"transfer(address,uint256)": "a9059cbb",
					"transfer(address[],uint256)": "1939c1ff",
					"withdraw(uint256)": "2e1a7d4d"
				}
			},
			"userdoc": {
				"kind": "user",
				"methods": {},
				"version": 1
			}
		}
	}
}